:020000040800F2
:1000000000000220B92100084D21000855210008F8
:1000100057210008592100085B210008000000005A
:100020000000000000000000000000005D2100084A
:100030005F21000800000000612100086321000822
:1000400009220008092200080922000809220008E4
:1000500009220008092200080922000809220008D4
:1000600009220008092200080922000809220008C4
:1000700009220008092200080922000809220008B4
:1000800009220008092200080922000809220008A4
:100090000922000809220008092200080922000894
:1000A0000922000809220008092200080922000884
:1000B0000922000809220008092200080922000874
:1000C0000922000809220008092200080922000864
:1000D0000922000809220008092200080922000854
:1000E0000922000809220008092200080922000844
:1000F0000922000809220008092200080922000834
:100100000922000809220008092200080922000823
:100110000922000809220008092200080922000813
:100120000922000809220008092200080922000803
:100130000922000800000000000000000922000859
:1001400009220008092200080922000809220008E3
:1001500009220008092200080922000809220008D3
:1001600009220008092200080922000809220008C3
:1001700009220008092200080922000800000000E6
:10018000000000000922000800000000000000003C
:1001900009220008000000000000000009220008F9
:1001A000000000000000000000000000092200081C
:1001B0000922000809220008092200080922000873
:0401C0000922000808
:1001C40010B5054C237833B9044B13B10448AFF38D
:1001D40000800123237010BD74040020000000007F
:1001E400D04B000808B5034B1BB103490348AFF3D8
:1001F400008008BD0000000078040020D04B0008F7
:1002040081F0004102E000BF83F0004330B54FEAC3
:1002140041044FEA430594EA050F08BF90EA020F30
:100224001FBF54EA000C55EA020C7FEA645C7FEAC3
:10023400655C00F0E2804FEA5454D4EB5555B8BFE6
:100244006D420CDD2C4480EA020281EA030382EA57
:10025400000083EA010180EA020281EA0303362DE9
:1002640088BF30BD11F0004F4FEA01314FF4801CBC
:100274004CEA113102D0404261EB410113F0004FCE
:100284004FEA03334CEA133302D0524263EB430385
:1002940094EA050F00F0A780A4F10104D5F1200E23
:1002A4000DDB02FA0EFC22FA05F2801841F100017E
:1002B40003FA0EF2801843FA05F359410EE0A5F152
:1002C40020050EF1200E012A03FA0EFC28BF4CF083
:1002D400020C43FA05F3C01851EBE37101F0004539
:1002E40007D54FF0000EDCF1000C7EEB00006EEB46
:1002F4000101B1F5801F1BD3B1F5001F0CD34908D0
:100304005FEA30004FEA3C0C04F101044FEA445226
:1003140012F5800F80F09A80BCF1004F08BF5FEAAD
:10032400500C50F1000041EB045141EA050130BD8D
:100334005FEA4C0C404141EB010111F4801FA4F130
:100344000104E9D191F0000F04BF01460020B1FA85
:1003540081F308BF2033A3F10B03B3F120020CDABD
:100364000C3208DD02F1140CC2F10C0201FA0CF09B
:1003740021FA02F10CE002F11402D8BFC2F1200C00
:1003840001FA02F120FA0CFCDCBF41EA0C019040B6
:10039400E41AA2BF01EB0451294330BD6FEA0404FF
:1003A4001F3C1CDA0C340EDC04F11404C4F12002EA
:1003B40020FA04F001FA02F340EA030021FA04F3FC
:1003C40045EA030130BDC4F10C04C4F1200220FA53
:1003D40002F001FA04F340EA0300294630BD21FA91
:1003E40004F0294630BD94F0000F83F4801306BF57
:1003F40081F480110134013D4EE77FEA645C18BF4B
:100404007FEA655C29D094EA050F08BF90EA020FE1
:1004140005D054EA000C04BF1946104630BD91EAD9
:10042400030F1EBF0021002030BD5FEA545C05D1DC
:100434004000494128BF41F0004130BD14F580041B
:100444003CBF01F5801130BD01F0004545F0FE418F
:1004540041F470014FF0000030BD7FEA645C1ABFC4
:10046400194610467FEA655C1CBF0B46024650EAFB
:10047400013406BF52EA033591EA030F41F4002127
:1004840030BD00BF90F0000F04BF0021704730B5AD
:100494004FF4806404F132044FF000054FF0000182
:1004A40050E700BF90F0000F04BF0021704730B543
:1004B4004FF4806404F1320410F0004548BF404218
:1004C4004FF000013EE700BF42004FEAE2014FEA6D
:1004D40031014FEA02701FBF12F07F4393F07F4F48
:1004E40081F06051704732F07F4208BF704793F04B
:1004F4007F4F04BF41F40021704730B54FF460745E
:1005040001F0004521F000411CE700BF50EA010260
:1005140008BF704730B54FF000050AE050EA010209
:1005240008BF704730B511F0004502D5404261EB79
:1005340041014FF4806404F132045FEA915C3FF4BA
:10054400D8AE4FF003025FEADC0C18BF03325FEA57
:10055400DC0C18BF033202EBDC02C2F1200300FA08
:1005640003FC20FA02F001FA03FE40EA0E0021FA2D
:1005740002F11444BDE600BF4FEA4102B2F1E04388
:1005840024BFB3F5001CDCF1FE5C0DD901F0004C76
:100594004FEAC0024CEA5070B2F1004F40EB8300C6
:1005A40008BF20F00100704711F0804F21D113F1F2
:1005B4003872BCBF01F00040704741F480114FEA2B
:1005C4005252C2F11802C2F1200C10FA0CF320FAB4
:1005D40002F018BF40F001004FEAC1234FEAD323D1
:1005E40003FA0CFC40EA0C0023FA02F34FEA43033B
:1005F400CCE77FEA625307D150EA01331EBF4FF0C4
:10060400FE4040F44000704701F0004040F0FE40DE
:1006140040F40000704700BF53B94AB9002908BF2D
:1006240000281CBF4FF0FF314FF0FF3000F072B9CB
:10063400ADF1080C6DE904CE00F006F8DDF804E035
:10064400DDE9022304B070472DE9F047089E044613
:100654008846002B4BD18A42154667D9B2FA82F2FA
:100664004AB1C2F1200701FA02F320FA07F79540D4
:1006740047EA030894404FEA154E230CB8FBFEF7F3
:100684001FFA85FC0EFB178843EA084307FB0CF1AD
:10069400994209D9EB1807F1FF3080F01B81994288
:1006A40040F21881023F2B445B1AA4B2B3FBFEF064
:1006B4000EFB103344EA034400FB0CFCA44509D9A7
:1006C4002C1900F1FF3380F00781A44540F2048126
:1006D40002382C4440EA0740A4EB0C0400271EB166
:1006E400D4400023C6E900433946BDE8F0878B4275
:1006F40009D9002E00F0EB800027C6E90001384636
:100704003946BDE8F087B3FA83F7002F47D18B420F
:1007140002D3824200F2FA80841A61EB03030120BF
:100724009846002EE0D0C6E90048DDE702B9FFDEB6
:10073400B2FA82F2002A40F08F80491B4FEA154E2C
:100744001FFA85F80127B1FBFEFC230C0EFB1C11DC
:1007540043EA014308FB0CF1994207D9EB180CF169
:10076400FF3002D2994200F2CD808446591AA3B2D6
:10077400B1FBFEF00EFB101443EA044408FB00F83E
:10078400A04507D92C1900F1FF3302D2A04500F28D
:10079400B6801846A4EB080440EA0C409FE7C7F172
:1007A400200CBB4022FA0CFE4EEA030E01FA07F4B9
:1007B40020FA0CF521FA0CF34FEA1E482543B3FB4B
:1007C400F8F92C0C08FB19331FFA8EFA44EA034398
:1007D40009FB0AF49C4202FA07F200FA07F10BD96A
:1007E4001EEB030309F1FF3080F087809C4240F246
:1007F4008480A9F1020973441B1BADB2B3FBF8F06A
:1008040008FB103345EA034400FB0AFAA24508D961
:100814001EEB040400F1FF336BD2A24569D9023800
:10082400744440EA0940A0FB0289A4EB0A044C4545
:10083400C2464B4654D351D0002E69D0B1EB0A05C1
:1008440064EB030404FA0CFCFD40FC404CEA05058F
:10085400C6E90054002747E7C2F1200320FA03F752
:10086400954001FA02F021FA03F34FEA154E38439A
:10087400010CB3FBFEF71FFA85F80EFB173341EAB0
:10088400034107FB08F38B4204FA02F407D9691801
:1008940007F1FF3C2FD28B422DD9023F2944CB1ABA
:1008A40081B2B3FBFEF00EFB103341EA034100FBBF
:1008B40008F38B4207D9691800F1FF3C17D28B4229
:1008C40015D902382944C91A40EA07473BE7374695
:1008D400304609E70746E7E61846FBE64145ABD252
:1008E400B8EB020A69EB0E0201381346A4E760462E
:1008F400E9E7184695E76746D1E781467CE7023881
:100904002C4447E7ACF1020C2B442FE7384608E7A8
:100914003746E9E6704700BF10B504460E4B187819
:100924004FF47A73B3FBF0F30C4A1068B0FBF3F0A6
:1009340000F088F868B90F2C01D901200AE00022E0
:1009440021464FF0FF3000F049F8034B5C60002073
:1009540000E0012010BD00BF0000002008000020BE
:1009640008B50B4B1A6842F400721A601A6842F414
:1009740080621A601A6842F480721A60032000F0E0
:100984001BF80020FFF7C8FF01F008FB002008BD9A
:10099400003C0240034A1168034B1B780B4413606C
:1009A400704700BF9404002000000020014B186829
:1009B400704700BF94040020074AD36823F4E0631F
:1009C4001B041B0C000200F4E060184340F0BF60FD
:1009D40040F40030D060704700ED00E030B4174BB5
:1009E400DB68C3F30223C3F10704042C28BF0424E7
:1009F4001D1D062D18D9033B4FF0FF3505FA04F4ED
:100A040021EA0401994005FA03F322EA0303194396
:100A140000280BDB0901C9B200F1604000F5614018
:100A240080F8001330BC70470023E5E700F00F00A6
:100A34000901C9B2024B1954F4E700BF00ED00E00C
:100A440014ED00E00138B0F1807F0AD2064B586003
:100A5400064AF02182F823100020986007221A60C9
:100A640070470120704700BF10E000E000ED00E097
:100A740068B110B5044643792BB102236371012395
:100A84006371002010BD037101F0A4FAF5E70120A1
:100A9400704770B110B50446037933B10223237152
:100AA400002020610123237110BD437101F0AAFAD3
:100AB400F4E7012070474379012B1FD070B401255E
:100AC4004571022303710668336840F6FE7494404E
:100AD40023EA04040B6849680B43934023433360BF
:100AE40004682368C02101FA02F223EA02022260A8
:100AF400057100234371184670BC7047022070478B
:100B040000230F2B00F2D180F0B482B039E006222A
:100B140000E00022B2403A430234644E46F82420F6
:100B2400634A1468EA4302EA04064F6817F4803FF4
:100B340001D045EA04065E4C2660646802EA0406B5
:100B44004F6817F4003F01D045EA0406584C66602C
:100B5400A46802EA04064F6817F4801F01D045EA2E
:100B64000406534CA660E46822404E6816F4001F45
:100B740001D045EA04024E4CE26001330F2B00F22F
:100B8400918001229A400C6804EA0205AA42F4D139
:100B94004C68022C01D0122C10D1DE08083650F813
:100BA40026C003F00704A7000F24BC402CEA040C61
:100BB4000C69BC4044EA0C0440F8264004685F0019
:100BC4000326BE40F64306EA040C4C6804F0030412
:100BD400BC4044EA0C0404604C6804F1FF3CBCF1E2
:100BE400010F03D9112C01D0122C10D1846806EA0C
:100BF400040CCC68BC4044EA0C048460446824EAD5
:100C040002024C68C4F300149C4014434460C2685C
:100C140016408A68BA403243C2604A6812F0805F64
:100C2400ABD000220192234A546C44F480445464AF
:100C3400526C02F480420192019A9C08A61C1B4A41
:100C440052F8267003F0030296000F22B24027EAFE
:100C54000207194A90423FF45CAF02F58062904269
:100C640016D002F58062904214D002F58062904260
:100C740012D002F58062904210D002F58062904258
:100C84000ED002F5806290423FF441AF072241E763
:100C940001223FE702223DE703223BE7042239E732
:100CA400052237E702B0F0BC7047704700380140B6
:100CB400003C0140003802400000024012B909041F
:100CC4008161704781617047002800F0928038B5D7
:100CD400044690F841300BB3022284F84120216885
:100CE400CB6923F47B6323F00F03CB6123681A627F
:100CF4006369934275D0E368BBB91025A368202BC0
:100D040000D86D0023683C4A934210D002F58062FB
:100D140093420CD0022000F01BFC0BE080F8403022
:100D2400364B436301F0A2F9D6E72025E6E701201C
:100D340000F00EFC2369B3F5007F3AD0B0FBF5F068
:100D440000EB800043006269B3FBF2F305332C4AE5
:100D5400A2FB0323DB0803F001029B1A5B081202C7
:100D6400991EFD293FD821690A43216813430B6268
:100D74002168CB6923F47B6323F00F036268A068C6
:100D84000243E0680243A0690243134343F400634F
:100D9400CB61A368302B01D0B02B04D12268D36976
:100DA40043F48053D36100206064012384F841300C
:100DB40038BDE36853B1AD00B0FBF5F000EB800043
:100DC40043006269B3FBF2F30533C0E7ED00B0FB07
:100DD400F5F000EB800043006269B3FBF2F30533E6
:100DE400B5E70022BCE7636C43F0100363640120A1
:100DF400DEE70120704700BF003800407B0E00088A
:100E0400CDCCCCCC704708B5426A03681288DA604E
:100E1400436A02334362438D013B9BB24385438D56
:100E24009BB203B108BD0268536823F0A00353606A
:100E3400012380F84130FFF7E5FFF3E7704708B579
:100E44000368DA68C36A1A80C36A0233C362438ED2
:100E5400013B9BB24386438E9BB203B108BD02683B
:100E6400536823F060035360012380F84130FFF797
:100E7400E5FFF3E7704710B584B004460268936851
:100E8400039390F84130DBB2042B06D094F8413040
:100E9400DBB2032B2CD004B010BD039B13F0010F65
:100EA40003D0536813F0400F1FD1039B13F0400F7E
:100EB400ECD023685A6812F0200FE7D05A6822F069
:100EC40060025A60002301932368DA6801929B68E8
:100ED4000193019B012384F84130636C43F00203C6
:100EE40063642046FFF7C6FFD0E7FFF7A8FFDCE7FF
:100EF400039B13F0020F04D023685B6813F0800F88
:100F04001DD1039B13F0080FC5D023685A6812F053
:100F1400200FC0D05A6822F0A0025A600023029326
:100F240023689B680293029B012384F84130636C1D
:100F340043F0040363642046FFF79CFFABE72046BD
:100F4400FFF761FFDDE70000014B01221A607047E3
:100F54004C004742002800F09D8070B504464F4B7A
:100F64001B6803F00F038B4209D2CBB24B4A1370B8
:100F7400136803F00F038B4201D0012070BD236876
:100F840013F0020F17D013F0040F04D0444A9368EF
:100F940043F4E0539360236813F0080F04D0404AED
:100FA400936843F4604393603D4A936823F0F003ED
:100FB400A068034393600D46236813F0010F32D0F9
:100FC4006368012B21D09A1E012A25D9344A12685C
:100FD40012F0020F60D032498A6822F003021343F0
:100FE4008B60FFF7E3FC06462D4B9B6803F00C0374
:100FF4006268B3EB820F16D0FFF7D8FC801B41F276
:1010040088339842F0D90320B8E7254A126812F4CD
:10101400003FE0D10120B1E7214A126812F0007FBD
:10102400D9D10120AAE71D4B1B6803F00F03AB4283
:1010340009D9EAB2194B1A701B6803F00F03AB42CB
:1010440001D001209AE7236813F0040F06D0144A54
:10105400936823F4E053E1680B439360236813F02F
:10106400080F07D00E4A936823F46043216943EACA
:10107400C103936000F0D6FB094B9B68C3F30313D1
:10108400084AD35CD840084B18600020FFF744FCA2
:10109400002073E70120704701206FE7003C024005
:1010A40000380240E84B00080800002070470000A8
:1010B40008B5064BDB6813F0800F00D108BDFFF7BD
:1010C400F5FF034B80221A70F8E700BF0038024096
:1010D4000E380240F0B583B00446036813F0010FE4
:1010E4000CD0964AD2F88C3023F0C063816B0B434A
:1010F400C2F88C30836B3BB3002600E000262368E3
:1011040013F0020F0BD08D4AD2F88C3023F0C05369
:10111400E16B0B43C2F88C30E36B03B901262368FF
:1011240013F0040F14D0854AD2F88C3023F4401302
:10113400216B0B43C2F88C30236BB3F5801F05D0B1
:10114400002B7BD0002504E00126D8E70126F7E731
:101154000025236813F0080F0ED0784AD2F88C309B
:1011640023F44003616B0B43C2F88C30636BB3F51B
:10117400800F65D003B90125236813F0200F61D1D6
:10118400236813F0100F03D094F858206C4B1A60A6
:10119400236813F0800F08D0684AD2F8943023F4FF
:1011A4004003E16C0B43C2F89430236813F0400F02
:1011B40008D0624AD2F8943023F08063A16C0B43C8
:1011C400C2F89430236813F4807F0DD05B4AD2F8C0
:1011D400943023F00063616D0B43C2F89430636D67
:1011E400B3F1006F00F09580236813F4007F08D0FA
:1011F400524AD2F8943023F08053616C0B43C2F806
:101204009430236813F4806F0CD04C4AD2F8943095
:1012140023F00053216D0B43C2F89430236DB3F1D6
:10122400005F78D0002E76D12368B3F5006F72D0BA
:10123400002D40F02281002003B0F0BD012588E795
:10124400012697E7002301933C4B1A6C42F080522D
:101254001A641B6C03F080530193019B394A136891
:1012640043F480731360FFF7A1FB0746354B1B68FB
:1012740013F4807F06D1FFF799FBC01B0228F5D930
:101284000320D9E72D4B1B6F13F4407312D0226C4B
:1012940002F440729A420DD0284B1A6F22F4407225
:1012A400294901200860002008601A671B6F13F0A9
:1012B400010F12D1236C03F44072B2F5407F1DD0AC
:1012C4001E4A936823F4F81393601C490B6F226C35
:1012D400C2F30B0213430B6752E7FFF767FB0746A2
:1012E400164B1B6F13F0020FE4D1FFF75FFBC01B1B
:1012F40041F288339842F3D903209DE70F498A6865
:1013040022F4F81223F0704323F4407313438B60E8
:10131400DBE7012568E70D4B00221A60FFF746FB67
:101324000646064B1B6813F0006F11D0FFF73EFB17
:10133400801B0228F5D903207EE700BF0038024055
:10134400E011474200700040400E474268004742A7
:10135400236813F0010F01D0A26B22B113F0020F26
:1013640015D0E36B9BB9774AD2F88400D2F8841085
:101374006368A66843EA861300F44030034301F02F
:1013840070610B43616943EA0173C2F884302368D6
:1013940013F0040F03D0226BB2F5801F06D013F0B4
:1013A400080F20D0636BB3F5800F1CD1654AD2F8C7
:1013B4008400D2F884106368A66843EA861300F4B4
:1013C40040300343206943EA006301F0E0410B43EA
:1013D400C2F88430D2F88C3023F01F03A16A01399B
:1013E4000B43C2F88C30236813F4806F03D0236D51
:1013F400B3F1005F28D0236813F4006F11D0636841
:10140400A26843EA8213E2685208013A43EA0243BB
:10141400226943EA0263626943EA0273494AC2F8F1
:101424008430494B01221A60FFF7C0FA0646454B47
:101434001B6813F0006F7FF4FBAEFFF7B7FA801B55
:101444000228F4D90320F7E63E48D0F88430C3F3E9
:1014540001435A1CD0F884606368A16843EA81138D
:10146400E1684908013943EA014343EA426306F06B
:10147400E0421343C0F88430BDE7344B00221A60C5
:10148400FFF794FA05462F4B1B6813F0005F06D054
:10149400FFF78CFA401B0228F5D90320CCE6236819
:1014A40013F0040F01D0226B22B113F0080F1AD0ED
:1014B400636BC3B9234AD2F88810A369E06943EA8D
:1014C400801301F440310B43616A43EA0163C2F8BB
:1014D4008830D2F88C3023F4F853E16A013943EAB6
:1014E4000123C2F88C30236813F4807F03D0636D2A
:1014F400B3F1006F11D0154B01221A60FFF756FAB1
:101504000446104B1B6813F0005F18D1FFF74EFA26
:10151400001B0228F5D903208EE60A48D0F888106B
:10152400A369E26943EA8213226A5208013A43EA50
:10153400024301F070621343C0F88830DBE70020F7
:101544007AE600BF00380240680047427000474214
:101554000138072800F25881DFE810F09E00FB00F4
:10156400560108005601560156010800AA4BD3F84B
:101574008C3003F47003B3F5401F00F0478108D8A2
:10158400B3F5801F12D0B3F5001F65D083B30020DC
:101594007047B3F5000F5FD0B3F5400F03D19E4BF6
:1015A4005B689E487047B3F5800FF0D19A4B5B6837
:1015B40013F4800F47D1984BD3F8843003F03F03E2
:1015C4009648B0FBF3F0944BD3F88420C2F3036243
:1015D400D3F88410C1F3881100FB01F0B0FBF2F0E2
:1015E400D3F88C3003F01F030133B0FBF3F07047E2
:1015F400894B5B6813F4800F1CD1874BD3F8883078
:1016040003F03F038548B0FBF3F0834BD3F8882005
:10161400C2F30362D3F88810C1F3881100FB01F010
:10162400B0FBF2F0D3F88C30C3F304230133B0FBE6
:10163400F3F07047784BD3F8883003F03F037748D2
:10164400B0FBF3F0E1E7744BD3F8843003F03F03CD
:101654007248B0FBF3F0B6E76F4B5B6813F4800F8E
:1016640012D16D4B5B6803F03F036C48B0FBF3F0A1
:10167400694A5368C3F302735268C2F3881200FBC9
:1016840002F0B0FBF3F07047634B5B6803F03F0379
:101694006248B0FBF3F0EBE75F4BD3F88C3003F018
:1016A400C063B3F1007F29D00AD9B3F1806F30D081
:1016B400B3F1C06F40F0AC80574B5B68574870473C
:1016C400002B40F0A580544B5B6813F4800F17D0B7
:1016D400514BD3F8843003F03F035048B0FBF3F090
:1016E4004D4AD2F88430C3F3881300FB03F0D2F8D8
:1016F4008430C3F30273B0FBF3F07047484870477B
:10170400454BD3F8843003F03F034448B0FBF3F077
:10171400E6E7414B5B6813F4800F12D03E4B5B68E5
:1017240003F03F033D48B0FBF3F03B4A5368C3F377
:10173400881300FB03F05368C3F30273B0FBF3F0A8
:101744007047354B5B6803F03F033448B0FBF3F05C
:10175400EBE7314BD3F88C3003F0C053B3F1006F97
:1017640027D009D9B3F1805F2ED0B3F1C05F51D136
:10177400294B5B6829487047002B4BD1264B5B688B
:1017840013F4800F17D0244BD3F8843003F03F03B5
:101794002248B0FBF3F0204AD2F88430C3F3881314
:1017A40000FB03F0D2F88430C3F30273B0FBF3F010
:1017B40070471B487047184BD3F8843003F03F033D
:1017C4001648B0FBF3F0E6E7134B5B6813F4800FA5
:1017D40012D0114B5B6803F03F031048B0FBF3F0E9
:1017E4000D4A5368C3F3881300FB03F05368C3F333
:1017F4000273B0FBF3F07047074B5B6803F03F03E1
:101804000648B0FBF3F0EBE700207047044870474C
:101814000020704700207047003802400024F40084
:101824000080BB002DE9F04B5A4B9B6803F00C037E
:10183400082B03D00C2B58D0574831E0554B5A682D
:1018440002F03F025B6813F4800F2BD0514B5B68AE
:10185400C3F388131E4600275C010025E41A65EBD8
:101864000705A90141EA9461A001001B61EB050190
:10187400CB0043EA5073C400A01943EB07018B0269
:1018840043EA90538402204619460023FEF7C4FE1F
:10189400404B5B68C3F3014301335B00B0FBF3F0DF
:1018A400BDE8F08B3B4B5B68C3F388131E460027EF
:1018B4005C010025E41A65EB0705A90141EA94617E
:1018C400A001001B61EB0501CB0043EA5073C40087
:1018D400A01943EB07018B0243EA9053840220468C
:1018E40019460023FEF798FED2E72A4B5A6802F005
:1018F4003F025B6813F4800F28D0264B5B68C3F368
:1019040088131E4600275C010025E41A65EB0705D1
:10191400A90141EA9461A001001B61EB0501CB0020
:1019240043EA5073C400A01943EB07018B0243EA56
:1019340090538402204619460023FEF76DFE154B92
:101944005B68C3F30273B0FBF3F0A9E7114B5B6868
:10195400C3F388131E4600275C010025E41A65EBD7
:101964000705A90141EA9461A001001B61EB05018F
:10197400CB0043EA5073C400A01943EB07018B0268
:1019840043EA90538402204619460023FEF744FE9E
:10199400D5E700BF003802400024F40070B582B0DF
:1019A4000446036813F0010F41D0A64B9B6803F073
:1019B4000C03042B32D0A34B9B6803F00C03082BBD
:1019C40027D0A04B9B6803F00C030C2B59D0636801
:1019D400B3F5803F5BD0B3F5A02F5ED0994B1A6866
:1019E40022F480321A601A6822F480221A60636832
:1019F400002B5CD0FEF7DAFF0546924B1B6813F40C
:101A0400003F14D1FEF7D2FF401B6428F5D9032010
:101A14009DE18C4B5B6813F4800FD2D0894B1B681B
:101A240013F4003F03D06368002B00F08D8123681A
:101A340013F0020F67D0834B9B6813F00C0F4AD04E
:101A4400804B9B6803F00C03082B3FD07D4B9B68B5
:101A540003F00C030C2B48D0E368002B74D07A4BB2
:101A640001221A60FEF7A2FF0546764B1B6813F0AD
:101A7400020F60D1FEF79AFF401B0228F5D903201C
:101A840065E1704B5B6813F4800FA0D0C6E76D4A24
:101A9400136843F480331360A9E76A4B1A6842F46D
:101AA40080221A601A6842F480321A609FE7FEF7B7
:101AB4007DFF0546634B1B6813F4003FB7D0FEF768
:101AC40075FF401B6428F5D9032040E15D4B5B683A
:101AD40013F4800FBAD15B4B1B6813F0020F0AD0CA
:101AE400E368012B07D0012031E1564B5B6813F406
:101AF400800FB1D1EFE7534A136823F0F80321694B
:101B040043EAC1031360236813F0080F40D06369EC
:101B140063B34E4B01221A60FEF748FF0546494B5A
:101B24005B6F13F0020F33D1FEF740FF401B022816
:101B3400F5D903200BE1434A136823F0F803216924
:101B440043EAC1031360DEE73F4B00221A60FEF74D
:101B54002DFF05463B4B1B6813F0020FD3D0FEF755
:101B640025FF401B0228F5D90320F0E0374B002263
:101B74001A60FEF71BFF0546324B5B6F13F0020F32
:101B840006D0FEF713FF401B0228F5D90320DEE040
:101B9400236813F0040F79D02A4B1B6C13F0805F79
:101BA40033D100230193274B1A6C42F080521A64FC
:101BB4001B6C03F080530193019B0125244B1B688C
:101BC40013F4807F23D0A368012B34D0052B41D09C
:101BD4001C4B1A6F22F001021A671A6F22F00402DA
:101BE4001A67A368002B3FD0FEF7E0FE0646154BAC
:101BF4001B6F13F0020F48D1FEF7D8FE801B41F291
:101C040088339842F3D90320A1E00025D6E7104A8F
:101C1400136843F480731360FEF7C8FE06460C4B4A
:101C24001B6813F4807FCED1FEF7C0FE801B022810
:101C3400F5D903208BE0034A136F43F001031367C4
:101C4400CFE700BF0038024000004742800E474201
:101C540000700040404B1A6F42F004021A671A6F7A
:101C640042F001021A67BCE7FEF7A0FE06463A4BB3
:101C74001B6F13F0020F08D0FEF798FE801B41F291
:101C840088339842F3D9032061E0E5B9A369002BB6
:101C94005CD0314A926802F00C02082A59D0022B17
:101CA40017D02E4B00221A60FEF780FE04462A4B02
:101CB4001B6813F0007F45D0FEF778FE001B022856
:101CC400F5D9032043E0244A136C23F080531364B2
:101CD400DCE7224B00221A60FEF768FE05461E4B25
:101CE4001B6813F0007F06D0FEF760FE401B02283D
:101CF400F5D903202BE0E369226A1343626A43EABD
:101D04008213A26A5208013A43EA0243E26A43EAAE
:101D14000263226B43EA02730F4A53600F4B0122A2
:101D24001A60FEF743FE04460B4B1B6813F0007F5A
:101D340006D1FEF73BFE001B0228F5D9032006E07E
:101D4400002004E0002002E0012000E0002002B0B6
:101D540070BD0120FBE700BF00380240600047422D
:101D640030B58BB000240594069407940894099424
:101D740001941D4B1A6B42F080021A631A6B02F035
:101D840080020192019A02941A6B42F004021A63CF
:101D94001A6B02F004020292029A03941A6B42F044
:101DA40001021A631A6B02F001020392039A04946B
:101DB4001A6B42F002021A631B6B03F002030493D2
:101DC400049B0A4D012202212846FEF777FF0223D5
:101DD4000593012306930794089405A92846FEF762
:101DE4008FFE0BB030BD00BF00380240000402403B
:101DF40030B583B0002400940194074D074B2B6049
:101E04002846FEF746FE0094019422466946284679
:101E1400FEF751FE03B030BDA00400200074004062
:101E240010B5064C064B23602046FEF721FE2268BF
:101E3400936843F00103936010BD00BF9804002031
:101E44000030024008B50B480B4B03604FF440735D
:101E54004360102383600023C3604FF40072026167
:101E64004FF47A5242618361C3610362FEF72CFF2F
:101E740008BD00BFB40400200038004030B5ADB048
:101E8400342200211FA802F099FE00241A941B9406
:101E94001C941D941E945C22214603A802F08EFE1D
:101EA400254B5A6822F03F0242F010025A605A68E9
:101EB40042F480025A6001941A6C42F080521A640F
:101EC4001B6C03F080530193019B02941B4A13681B
:101ED40023F4404343F480431360136803F4404302
:101EE4000293029B01251F954FF480332093259480
:101EF4004FF4800326931FA8FFF750FD0F231A9376
:101F04001B951C941D941E9421461AA8FFF722F8D1
:101F14000395C0230593022306930A220492052203
:101F2400089207930D95119403A8FFF7D3F8FFF7D0
:101F34000BF82DB030BD00BF0038024000700040E7
:101F440008B5FEF70DFDFFF799FFFFF709FFFFF74F
:101F54004FFFFFF765FF00F003F8FFF773FFFEE79D
:101F640038B50B4C0025258065800A4B636001233E
:101F740023816381204601F097FE074902230B80E9
:101F840010234B808D80204601F018FF38BD00BF20
:101F940004050020D6A3707DFC04002082B000213B
:101FA40000910B4B5A6C42F480425A645A6C02F40E
:101FB40080420092009A01911A6C42F080521A6495
:101FC4001B6C03F080530193019B02B0704700BF68
:101FD400003802400268094B9A4200D0704782B030
:101FE40000230193064B1A6B42F480521A631B6B55
:101FF40003F480530193019B02B070470030024008
:102004000038024000B589B000230393049305937C
:10201400069307930268134B9A4202D009B05DF805
:1020240004FB0021019103F5E2331A6C42F00052E3
:102034001A641A6C02F000520192019A02911A6B0E
:1020440042F001021A631B6B03F001030293029B2B
:10205400102303930323049303A90348FEF750FDBD
:10206400DCE700BF0074004000000240F0B58BB014
:1020740000230593069307930893099302682E4B54
:102084009A4201D00BB0F0BD0024019403F5003353
:102094001A6C42F480421A641A6C02F4804201926F
:1020A400019A02941A6B42F004021A631A6B02F04A
:1020B40004020292029A03941A6B42F001021A6318
:1020C4001A6B02F001020392039A04941A6B42F011
:1020D40002021A631B6B03F002030493049B08239C
:1020E4000593022506950526099605A91348FEF7CA
:1020F40007FD402305930695079408940623099346
:102104000F4F05A93846FEF7FBFC4FF480530593A7
:10211400069507940894099605A90A48FEF7F0FC69
:102124004FF400730593069507940894099605A93E
:102134003846FEF7E5FCA5E70038004000080240F9
:10214400000002400004024008B5FEF7B1FF08BDDC
:10215400FEE7FEE7FEE7FEE770477047704708B505
:10216400FEF718FC08BD00000F49D1F8883043F48D
:102174007003C1F888300D4B1A6842F001021A60EE
:10218400002098601A6822F0847222F480321A6067
:10219400074A5A601A6822F480221A60D8604FF005
:1021A40000638B60704700BF00ED00E00038024020
:1021B40010300024DFF834D0002103E00C4B5B58CE
:1021C400435004310B480C4B42189A42F6D30B4A45
:1021D40002E0002342F8043B094B9A42F9D3FFF78B
:1021E400C3FF02F0C7FCFFF7ABFE704700000220FC
:1021F400584C0008000000207404002074040020DF
:1022040050050020FEE700002DE9F04F89B0D468A6
:10221400D58C93690794146B06930294D2F810A09A
:10222400D2F814B0D3699668546B0391002D66D02C
:1022340004F0100504F020040495384905944FF087
:10224400000E35464FE0875D047800EB460004EB52
:102254000724E6B2C4F3072451F8266051F8244059
:10226400334404EB9324C4F30906C3F3090346EA95
:102274000346A30A2A4C26FB04542A4D26FB05F5E3
:10228400A4F5006404EB0A08A8EB0B084646F7170C
:10229400CDE90067049E0EF1010C6EB1166A019F30
:1022A400A8FB068906FB079918F1004849F10009C3
:1022B4004FEA490AA3465446168D029F24044FF060
:1022C40000484FF000090EFB06FEC7FB0489039E7D
:1022D4004F46BC1004F30F0426F81E40D48C1FFA9A
:1022E4008CFE74450AD9548D012CE6B2ABD1059EFF
:1022F40050F8024B002EACD064BAAAE72E460799D8
:10230400D361069B96600020D160C2F810A0C2F889
:1023140014B0936109B0BDE8F08F00BF0C00002039
:1023240001000300030001002DE9F04FD68C9369EE
:10233400156BD2F810A0D2F814909468D2F80CB0AF
:1023440089B007930395D369556B0491002E00F06F
:10235400968005F0100605F020055449059606956B
:102364004FF0000ECDF808906AE010F8165010F8FF
:10237400078090F800C02D0400EB460005EB08250B
:10238400AC4438445FFA8CF6CCF3072551F8266048
:1023940051F825704FEA1C4C06EB932607EB962761
:1023A40051F82C30C7F30905C6F3090645EA064679
:1023B40003EB97233E4D26FB05B73E4D26FB054B0D
:1023C400C3F3090404EB44080BEB480B012426FB7C
:1023D40004F6A7F5D855029F0EEB040C08EB06048F
:1023E40005EB0A06F61B37464FEAE678CDE9007896
:1023F400059F77B1D2F820800295A6FB089A019E2A
:1024040008FB06AA19F100464AF100074FEA470AF9
:102414005546168D039FAD034FF000484FF0000959
:102424000EFB06FEC7FB0589049E4F46BD1005F34F
:102434000F0526F81E50D58C1FFA8CFE75451CD945
:10244400558DEFB2012D3EB28FD1069D5DB11EF0C8
:10245400010F22D10578C77846782D0205EB074C89
:10246400B44402308EE7467890F802C010F8035B5B
:10247400360206EB0C4CAC4484E7DDF80890D361DB
:10248400079B94600020C2F80CB0C2F810A0C2F8F8
:102494001490936109B0BDE8F08FC578877810F87F
:1024A400046B2D0205EB074CB4446BE70C000020D1
:1024B40001000300070006002DE9F04FD58C936955
:1024C400146BD2F810A0D2F81490D669D2F80CB0DC
:1024D40089B0079303949368546B0491002D00F022
:1024E4009F8004F0100504F02004059553490694D8
:1024F4004FF0000CCDF808901D46174677E018F809
:10250400033010F80E8010F802E000781B0403EB8F
:10251400086303EB0E23034404EB4200DCB2C3F371
:102524000722C3F3074851F8244051F822201B0E18
:1025340004EB962451F8286051F8233002EB9422DE
:1025440006EB922E03EB9E26C6F30903C4F309049B
:10255400C2F30902CEF3090E43EA0E4E42EA0442E4
:10256400374B22FB03B44FF480332EFB0348354B27
:1025740022FB0355344B2EFB035B012322FB03F2A6
:10258400324B2EFB0325029BA8F5804404EB0A087A
:10259400A8EB03084246D317CDE90023059B0CF1B1
:1025A400010E6BB13A6A019B0294A8FB028902FBFB
:1025B400039918F1004849F100094FEA490A5446C1
:1025C4003B8D049A0CFB03FC039B64034FF000480F
:1025D4004FF00009C3FB04894B469B1003F30F0320
:1025E40022F81C30FB8C1FFA8EFC634514D97C8DB9
:1025F400E2B202EB420E00EB0E085342012C08EB50
:1026040003047FF47CAF021D0368069810B15BBA23
:10261400104683E7104681E7DDF808902B463A46DA
:102624009360079BC2F80CB00020D661C2F810A0DA
:10263400C2F81490936109B0BDE8F08F0C0000203B
:10264400030006000C000A000A000C000600030048
:102654002DE9F04F89B05369D468D58C0293009466
:102664009369146B07930394D2F810A0D669936806
:10267400546B0491002D00F0C58004F0100504F0A3
:1026840020046749059506944FF0000C57460193C2
:102694009CE01BF8054010F809B01AF8099010F8EE
:1026A4000EA00078240404EB0B6B18F805400BEB28
:1026B4000A2BA84404EB09240BEB000508EB4E009D
:1026C4005FFA85F8C5F3072E51F828A051F82E902B
:1026D400C5F3074E2D0E0AEB962A51F82E8051F8B9
:1026E40025E0E6B209EB9A25C4F3072408EB952804
:1026F40051F8266051F824900EEB982406EB942EA2
:1027040009EB9E26C5F30905C4F30904C6F30909B8
:10271400CAF3090AC8F30908CEF3090E45EA0A4ABE
:1027240044EA084849EA0E4E3E4C009D2AFB0454F4
:102734003D4D28FB05444FF480332EFB034B3B4CAB
:10274400019B2AFB04334FF01B1428FB0433384C41
:102754002EFB0433012500932AFB05FA354B28FB95
:1027640003A8354B2EFB0383ABF558440193029B1E
:1027740004EB0708A8EB0308059B65444FEAE87BD4
:1027840063B1176A0294A8FB078907FB0B9918F138
:10279400004849F100094FEA49073C46B2F828E0ED
:1027A400039BE4024FF000484FF000090CFB0EFCC1
:1027B400C3FB0489049B4FEAA90404F30F0423F820
:1027C4001C40D48C1FFA85FC644519D9548D5FFADA
:1027D40084FE0EEB4E09CEF1000500EB090B0BEB6A
:1027E400050A012C0AEB09087FF453AF069B056820
:1027F40044680630002B3FF463AF6DBA64BA5FE7F8
:10280400019BBA469360009BD360029B5361079B74
:10281400D6610020C2F810A0936109B0BDE8F08F22
:102824000C0000200A000F00030006001900150028
:1028340015001900060003000F000A002DE9F04FEF
:1028440089B013699568039301955369D568D48C4D
:10285400049300959369156B07930595D3690691C5
:10286400002C00F0D980116A0291DFF8ECE14FF0FE
:10287400000C8146C1E006EB4608744209EB0807E8
:1028840007EB440A0AEB4805385D295D1AF818B0CD
:1028940019F808A017F8148099F8007015F8149026
:1028A40025440904000401EB0B6100EB0A6015F8F0
:1028B40014B001EB092105EB440400EB0820594452
:1028C40004EB86093844C5B2C0F307245EF82560DA
:1028D4005EF82450C0F30744000E03EB06085EF8CC
:1028E40024705EF82040C1F30723C8B205EB982595
:1028F40007EB95275EF820605EF82300C1F30743D9
:1029040004EB9724090E06EB94265EF823305EF858
:10291400211000EB962003EB902A01EB9A21CAF3D5
:102924000903C5F30905C4F30904C6F30906C1F391
:10293400090AC8F30908C7F30907C0F3090044EA00
:1029440007474AEA034A45EA08488B0A40EA064030
:102954003949009C28FB0141384C27FB0411384CB1
:1029640020FB04114FF480362AFB0611354C019DDF
:1029740028FB0454334D2AFB1544334D27FB0544EF
:1029840020FB15440125009428FB05F82F4C27FB58
:1029940004872F4C20FB04702E4C2AFB0400A1F565
:1029A40000360299019089B10398049C049630443E
:1029B400001BC5170F46A0FB010107FB051110F111
:1029C400004041F10001490003910E46148D059920
:1029D4000698B6024FF000474FF000080CFB04F4D1
:1029E400C1FB06784146891001F30F0120F8141049
:1029F400D18C0CF1010C61450EDD568D012E7FF456
:102A04003AAF566BB40699E8030009F108097FF55B
:102A14005AAF40BA49BA56E7D361039B019913618F
:102A2400049B916053610099079BD16000209361DE
:102A340009B0BDE8F08F00BF15001C000A000F00AC
:102A4400030006002A00240030002E0006000300C4
:102A54000F000A001C0015000C0000202DE9F04FA7
:102A64008BB0146904945469059494690994946826
:102A74000294D38CD4680194146BD2F81CB00694DD
:102A84000791002B00F00F81136A08930023009232
:102A9400DFF86492CDF80CB01A46EDE05FFA8CFCD6
:102AA4000FFA8CF4660006EB0408CCF1000500EB89
:102AB400080104EB84044B19495D10F808A013F8CD
:102AC40004B010F80CC090F8008003EB040E0EEB79
:102AD400050709041EF805301EF815E001EB0A612C
:102AE40007EB450A0AEB04001B041AF804A017F8C4
:102AF4001570445D03EB0B6301EB0C21284403EBDD
:102B04000E234144304404EB0A241F44CDB2C1F3E4
:102B1400072359F8256059F823E0039BC1F30745BF
:102B2400090E334459F8258059F82160FDB20EEBA3
:102B340093219B46C7F3072308EB912859F825C036
:102B440059F82350C7F3074E06EB98263B0E0CEBBF
:102B5400962C59F82E7059F823305FFA84FE05EB51
:102B64009C25C4F3072407EB952759F82EE059F860
:102B7400244003EB97230EEB932E04EB9E24C1F326
:102B84000901C3F30903CBF3090BC7F30907C6F320
:102B94000906C5F3090541EA0B4B43EA0747C4F3A9
:102BA4000901A30AC8F30908CCF3090CCEF3090EF2
:102BB40041EA0E4E039346EA084845EA0C4C424B60
:102BC40001992BFB0313414928FB013340492CFB9A
:102BD4000133404927FB01334FF480312EFB01338D
:102BE4003D49029C2BFB01443C4928FB01444FF026
:102BF4004B112CFB01413A4C27FB0411394C2EFBA1
:102C04000411019101212BFB01FB374928FB01B879
:102C1400364D2CFB058C364D27FB05C7354D2EFB59
:102C2400057102910899A3F57A3381B1049C059D3D
:102C340005931C44641BE717A4FB014501FB0755DE
:102C440014F1004445F10005690004910B46009E0F
:102C5400069F318D5B024FF00044002502FB01F119
:102C6400C7FB0345079CAB1003F30F0324F8113093
:102C7400F38C0132934213DD009BB3F82AC0BCF1FC
:102C8400010F7FF40BAF5B6B84689B0690E88200B6
:102C940000F10A007FF53AAF49BA7FBA64BA35E762
:102CA400DDF80CB03246029B9360019BD360049B19
:102CB4001361059B5361099BC2F81CB0002093610A
:102CC4000BB0BDE8F08F00BF24002D0015001C00E0
:102CD4000A000F00030006003F00370049004500CA
:102CE4004500490037003F00060003000F000A00BA
:102CF4001C0015002D0024000C0000202DE9F04FCD
:102D040093B0D38C05901046019212690C9202463E
:102D140040690D901046144692691192C26902925C
:102D2400E26880680392226B04900E920F91002B4C
:102D340000F09B81236A10930023DFF8A893069385
:102D44007AE1D2B2059D14B204EB440A504205EB79
:102D54000A014FEA840B01EB00080BEB040C08EBAF
:102D64000C073B18C4EBC40403EB400E0EEB040643
:102D74000793331805932B4615F80AA0CDF820A025
:102D840018F80CA013F802C01EF804803A5C17F877
:102D940010E01F78079B059D13F81030095C099714
:102DA400079316F81070335C120405EB400602EB2F
:102DB4000A62089D06EB040A090401EB05611AF88E
:102DC4000050365D059C2D0405EB066601EB0C21D5
:102DD4001AF8105014F810400AEB000C1B0403EB13
:102DE400086306EB05261CF810A0079D03EB0723D8
:102DF4000CEB4000099F584402EB0E220590394425
:102E04002A44B2441819CBB2C1F30724029E59F8DC
:102E1400233059F82450C1F307441E44090E3346A5
:102E240059F8246059F82170D4B205EB9325C2F304
:102E3400072106EB952B59F8246059F82110C2F3A9
:102E44000744120E07EB9B2706EB972859F82460DA
:102E540059F822400297C2B201EB982106EB912C5B
:102E640059F8226004EB9C24C0F3072206EB942E4D
:102E7400C0F3074659F8222059F82670000E5FFA6D
:102E84008AF6C3F30903099359F8200059F8266018
:102E940002EB9E22CAF30723C5F309050A9507EB43
:102EA4009227CAF3074500EB972059F8233059F8C5
:102EB4002550C2F309020B9206EB90260A9A03EB03
:102EC4009623CCF3090C079305EB93254FEA1A6A72
:102ED400029BCDF808C09446099A59F82AA04CEAF6
:102EE400024C029AC4F309040AEB952A44EA024408
:102EF4000B9ACDF820A0C8F30908C3F3090ACEF34E
:102F0400090E079BC1F3090141EA084142EA0E4850
:102F1400089AC6F30906C3F30903CBF3090BC7F3F5
:102F24000907C2F3090E43EA0643C0F30900960AEF
:102F3400C5F30905029640EA07404AEA0B4A4EEAFD
:102F44000545534E039F2CFB0676524F2AFB07661A
:102F5400514F21FB0766514F24FB0766504F28FB56
:102F64000766504F20FB07664F4F23FB07664FF45D
:102F7400803725FB07664D4F049A2CFB072E4C4ADD
:102F84002AFB02EE4B4F21FB07EE4B4F24FB07EECF
:102F94004A4F28FB07EE4A4F20FB07EE494F23FB1D
:102FA40007E7DFF844E125FB0E724FF0010B0392B3
:102FB4002CFB0BFB444F2AFB07BA444F21FB07AA07
:102FC400434F24FB07AA434F28FB07A7424A20FB91
:102FD4000277424A23FB0277414B25FB0373109D82
:102FE4000493A6F5801685B10C9A0D990D9632447A
:102FF400521AD117A2FB052305FB013312F100423B
:1030040043F100035B000C931E460198069C018D5E
:103014000E9DF6014FF000420023C5FB062304FB7E
:1030240001F10F9A9B1003F30F0322F81130C38CA4
:10303400621C9342069218DD019B5A8D012A7FF48B
:1030440080AE5B6B059D9B0629686A68A868D5F805
:103054000CA005F1100406D549BA52BA40BA9AFA3E
:103064009AFA0594CFE60594CDE6019A0499916005
:103074000399D160029BD361114613460C9A0A61ED
:103084000D99596111999961002013B0BDE8F08F31
:10309400690078004E005B003700420024002D00D8
:1030A40015001C000A000F000300060096008800AB
:1030B400AC00A200BA00B400C000BE00BE00C00054
:1030C400B400BA00A200AC00060003000F000A001E
:1030D4001C0015002D002400420037005B004E0048
:1030E400780069000C000020880096002DE9F04F5C
:1030F400914683B0D28CD9F81830D9F80C4000939B
:103104008046D9F81470D9F81000D9F81C30D9F8D1
:1031140008500194D9F830A0D9F820E0002A4ED004
:10312400DFF8A8C08C1E08EB420B58F8022B52BAE9
:10313400D6B2C2F307215CF826205CF821101344B0
:1031440001EB9322C2F30901C3F3090341EA0341EA
:10315400930A1C4A21FB02521B4D21FB05F5A2F5E3
:1031640000621044C01BC717A0FB0E0110F1004001
:103174000EFB071141F1000148044FF000460027FF
:10318400C0FB0A67D8454FEA41004FEAA70117463A
:1031940001F30F0124F8021FC7D10199C9F81C30AB
:1031A400009BC9F810000020C9F80850C9F80C1099
:1031B400C9F81420C9F8183003B0BDE8F08F3A46B6
:1031C4002146EBE701000300030001000C0000208E
:1031D4002DE9F04F89B0D38C96690493176B07924D
:1031E4001569546906969368D669D2F80CC0D2F86A
:1031F40020A0049A0597002A7ED0A1F1020B002793
:10320400A846CDF804B05546E346DFF8F8E0BA46E0
:103214009C4655E00278C3784178120202EB0343DE
:103224000B440230D9B2C3F307225EF821705EF872
:1032340022201B0C07EB962702EB97225EF82360F3
:10324400C7F30903C2F3090706EB922647EA0343CF
:103254002A4A23FB02B12A4A23FB02CBC6F3090CF8
:103264000CEB4C0C0BEB4C0B012223FB02F7A1F5EE
:10327400D85101EB0802121BD417A2FB052312F14B
:10328400004205FB043343F10003059CDA034FF0CD
:1032940000484FF00009C4FB0289CDE90289019A74
:1032A4004FEA4308039B9B1003F30F0322F8023FEA
:1032B400049B01920AF1010A9A45BC440C460BD0C6
:1032C4001AF0010FA6D0C278837810F8041B1202FA
:1032D40002EB03430B44A5E763464546DC460798E7
:1032E400416106998360C0F80CC0C66105618161C3
:1032F400002009B0BDE8F08F2146F0E7010003008B
:10330400070006000C0000202DE9F04F924687B01C
:10331400D28CDAF81830DAF830500493DAF8104026
:10332400DAF81480DAF81C60DAF80830DAF80CE01D
:103334000195DAF820C0002A7BD001EB42023E4F0F
:10334400CDF80CC002920D46A1468446CDF814A0D7
:103354005CF8041B49BAC8B2C1F30722C1F3074A97
:1033640057F8200057F82220090E00EB962057F852
:103374002A6057F8211002EB902206EB922A01EB07
:103384009A26C2F30902C6F30901C0F30900CAF37D
:10339400090A42EA004041EA0A4A284A20FB02E2BA
:1033A4004FF480312AFB0121254A20FB0233254AB0
:1033B4002AFB023E012320FB03F0234B2AFB0303D9
:1033C400A1F58042039C02EB0900A0EB08004FEA40
:1033D400E07BA0FB040110F1004004FB0B1141F160
:1033E4000001019C88034FF000484FF00009C0FB26
:1033F40004894FEAA9004FEA410900F30F0002993A
:1034040025F8020B8D429046A2D1DDF814A04C465B
:10341400CAF80830049BCAF80CE00020CAF81C6003
:10342400CAF81040CAF81420CAF8183007B0BDE82A
:10343400F08F4246ECE700BF0C00002003000600BA
:103444000C000A000A000C00060003002DE9F04FEE
:1034540013461C4687B0254626462D6B0592D28C12
:10346400D3F8149001958046356A18699B690493D2
:10347400D4F81CE0A3680295E468002A00F08C806C
:1034840001EB4202454D03928C4698E8440008F152
:10349400060852BA76BAD7B2C2F3072155F827A064
:1034A40055F82110C2F30747120E0AEB9E2A55F86D
:1034B400277055F822205FFA86FB01EB9A21C6F3A8
:1034C400072E07EB912755F82B6055F82EE002EBF9
:1034D400972206EB92260EEB962EC1F30901C2F356
:1034E4000902CEF3090BCAF3090AC7F30907C6F3A5
:1034F400090642EA074741EA0A4A4BEA0646284ACD
:103504002AFB0242274927FB01224FF4803126FB84
:10351400012225492AFB01344FF01B1327FB0344E6
:10352400224B26FB034401212AFB01FA204B27FBF3
:1035340003A7204B26FB0373A2F55842029E019F6A
:103544001044A0EB09004FEAE07AA0FB060110F159
:10355400004006FB0A1141F1000108034FF0004945
:103564004FF0000AC0FB079A5746B81000F30F004B
:103574002CF8020B480003998C45914685D1059D92
:103584006A61049A28610020AB60EC60C5F81CE015
:10359400AA6107B0BDE8F08F4A46F0E70C000020AE
:1035A4000A000F0003000600190015001500190099
:1035B400060003000F000A002DE9F04F89B01446FD
:1035C4000792D38CD2F810C0D2F814809269069274
:1035D400E2680192226B0392226AE569A66804926A
:1035E400002B00F0B08001EB4303584F0593029188
:1035F40050F8082B50F8043C52BA93FA93F9D4B219
:10360400C2F3072357F824B057F823300199C2F3C3
:103614000744120EAB4457F8245057F822405FFA7F
:1036240089F203EB9B2EC9F3072305EB9E2A57F877
:10363400222057F82330C9F3074504EB9A244FEAB4
:10364400196902EB942257F8255057F8299003EB97
:10365400922305EB932509EB9529CEF3090ECBF3C1
:10366400090BCAF3090AC3F30903C5F309054EEAB2
:103674000B4BC4F30904C9F3090EC2F3090243EA6C
:1036840002424EEA054E44EA0A444FEA9925304B79
:103694002BFB03132F4924FB01332F4922FB013356
:1036A4004FF4803A2EFB0A392C4B2BFB03662EFB7E
:1036B40013662B4B24FB036622FB13634FF0010AB2
:1036C40001932BFB0AFB274B24FB03BA264B22FB5B
:1036D40003A2264B2EFB0326A9F5003A0AEB0C02A3
:1036E400049C0399A2EB08024FEAE279A2FB0423AB
:1036F40012F1004204FB093343F10003DA024FF0F4
:1037040000484FF00009C1FB028902994FEAA9025F
:103714004FEA430C02F30F02059B21F8022B994256
:103724000291D0467FF464AF079A0199D16006995B
:1037340096600020D561C2F810C0C2F814A091614F
:1037440009B0BDE8F08FC2462246EEE70C00002027
:1037540015001C000A000F00030006002A002400C4
:1037640030002E00060003000F000A001C001500A4
:103774002DE9F04F134689B0864618690090184623
:103784001C465B69029383690693D0F808C0C36939
:10379400C06807920190D28C206B0390206A049039
:1037A400002A00F0D28001EB4202694805921C46CF
:1037B400DEF80050DEF80420DEF808300EF10A0EC0
:1037C4006DBA52BA93FA93FBEEB2C5F3072350F8DD
:1037D400267050F82330C5F3074604EB070A2D0E74
:1037E40050F8264050F8256003EB9A2304EB932904
:1037F400D5B2C2F3072450F8257050F82450C2F310
:10380400074406EB9926120E07EB962850F824700D
:1038140050F822205FFA8BF405EB9825CBF3072BA5
:1038240007EB952750F8244050F82BB002EB972271
:1038340004EB92240BEB942BC6F30906C9F3090994
:10384400CAF3090AC5F30905C7F30907C4F3090450
:1038540046EA0949C3F30903CBF30906C8F3090887
:10386400C2F3090245EA084842EA074246EA044626
:1038740043EA0A434FEA9B24364D019F23FB057517
:10388400354F29FB0755354F28FB0755344F22FB8D
:1038940007554FF4803A26FB0A5B324D23FB05CCD7
:1038A400314D29FB05CC4FF04B1528FB05C52F4F97
:1038B40022FB07552E4F26FB07554FF0010A0195B1
:1038C40023FB0AFA2B4B29FB03A92B4D28FB059854
:1038D4002A4D22FB05822A4B26FB032C009B049DC8
:1038E400ABF57A3A53441A46029BCDF808A0D21A93
:1038F400D717A2FB052305FB073312F1004243F15E
:103904000003039D9A024FF0004600275B00C5FBAD
:103914000267BA10009302F30F02059B21F8022BF1
:1039240099427FF445AF234607990198C860009AED
:10393400C1F808C00846CB610A61C1F814A0069911
:103944008161002009B0BDE8F08FDDF808A0EBE745
:103954000C00002024002D0015001C000A000F009C
:10396400030006003F0037004900450045004900B8
:1039740037003F00060003000F000A001C0015007A
:103984002D0024002DE9F04F93B014461192D38CEE
:103994001269039222461546646906941446926994
:1039A4001092EA6804922A6BE6690D92A4682A6A66
:1039B40005940E92002B00F0458101EB43030F9315
:1039C400DFF8DC82079100F110039946A9F1100198
:1039D4000EC959F8040C49BA52BA5BBA90FA90FA73
:1039E400C1F30720CCB258F8205058F82440C1F352
:1039F4000740090E264458F8204058F82170D0B2E8
:103A040005EB962504EB952BC2F3072158F82040CB
:103A140058F8211007EB9B27C2F30740120E04EB62
:103A24009724019758F82000274658F82240029717
:103A3400DAB201EB972100EB912C58F8220004EB49
:103A44009C2400EB942EC3F30722C3F307401B0E00
:103A540058F8207058F8222058F823005FFA8AF3A7
:103A6400C6F309060A9602EB9E2258F82360C5F3B2
:103A74000905CAF307230B9507EB9227CAF30745F9
:103A840000EB972058F8233058F825504FEA1A6A6B
:103A940006EB902603EB962358F82AA0089305EB2F
:103AA4009325019B0AEB952ACDF824A0C3F3090AB8
:103AB400029BC3F309030293089BC3F3090308930E
:103AC4000B9BC5F309050C951D460A9BCEF3090E05
:103AD400C2F3090245EA034342EA0E420193029B00
:103AE4000292099A0C9DC7F30907C0F3090040EA42
:103AF4000740C1F30901C2F3090741EA034147EA58
:103B04000545089B019FCBF3090BCCF3090CC6F3C5
:103B14000906C4F3090443EA0643BE46960A4AEA80
:103B24000B4A44EA0C44494F049A2EFB072E484A98
:103B34002AFB02EE474A21FB02EE474A24FB02EE2F
:103B4400464A029F27FB02EE454A20FB02EE454A05
:103B540023FB02E74FF4803E25FB0E7E019F424A81
:103B6400BC46059F2CFB027C404A2AFB02CC404FFA
:103B740021FB07CC3F4F24FB07CC3F4F029A22FB8B
:103B840007CC3E4F20FB07CC3D4F23FB07C7DFF894
:103B940014C125FB0C724FF0010B0492019F27FB0B
:103BA4000BFB384F2AFB07BA374F21FB07AA374FC5
:103BB40024FB07AA364F029A22FB07A7354A20FBAB
:103BC4000277354A23FB0277344B25FB03730593B5
:103BD400039B0E9CAEF5801E73441A46069BCDF8DB
:103BE40018E0D21AD117A2FB042304FB013312F10B
:103BF400004243F100030D9C1A024FF000400021E3
:103C0400C4FB02018A10079902F30F025B0021F83A
:103C1400022B03930F9B0791994209F110097FF43A
:103C2400D5AE119A059991600499D1601346D66175
:103C34001099039A1A610020C3F814E0996113B033
:103C4400BDE8F08FDDF818E0EBE700BF690078000D
:103C54004E005B003700420024002D0015001C00BC
:103C64000A000F000300060096008800AC00A200C2
:103C7400BA00B400C000BE00BE00C000B400BA0068
:103C8400A200AC00060003000F000A001C0015008F
:103C94002D002400420037005B004E0078006900CC
:103CA4000C00002088009600F8B54022044600214C
:103CB4000C3000F083FF3B493B4800F071F9228847
:103CC400638938492589A38601284FF0000318BF6A
:103CD4000021012A6164E586A36123616361E360D5
:103CE4006362E3612362236418D903200223628898
:103CF400012A1DD940210023626BB2F1011F6268C1
:103D040004BF21640B461AB143F010032364E2623A
:103D14000022228708B980332364F8BD234D10D0D4
:103D24002A78012A27D06288012A4FF00100E1D8BD
:103D340001D01846DEE7202218462264134660218B
:103D4400DAE729780029EED11949DFF86CE0194F38
:103D540001F580664A680EEA025302EA070003434B
:103D6400C2F30952134441F8043F8E42F2D10120B8
:103D740028700023BBE70E49DFF83CE00D4F01F546
:103D840080664A680EEA025302EA07000343C2F35C
:103D94000952134441F8043F8E42F2D100232B70A0
:103DA400C1E700BFCDB5E8B5C2A507F49004002073
:103DB4000800002000FC0F000000F03F664B426C3E
:103DC4009A4201D00420704730B50A88036C2DED67
:103DD400048B04460D46511E23F48070062983B0DB
:103DE40020641AD90820B4F93810B5F9043099427E
:103DF4007ED013F10C0F2ADA4FF6F4734030AB8007
:103E040022866B88638620B9236C43F48073236411
:103E1400002003B0BDEC048B30BD218E91426CD0E8
:103E240023F4877323F00103134303F07001236425
:103E3400702903F00F0303F1FF3366D0062B00F261
:103E44008980DFE803F0524F4C49433D4600332B51
:103E540032DC226C02F00F02013A062A72D83F4982
:103E640001EB820292ED009A92ED078A019007EE2F
:103E7400903AF8EEE77AF3EE040AC7EEA00AB2EE3F
:103E8400040A00F0FBF8DFED360AF0EE408A70EE2B
:103E9400C90AB0EE000A00F0F1F828EE288A28EEEC
:103EA400000A00F0BBF8BCEEC00AAB882A8801986F
:103EB40084ED0F0A2387A3E733234030AB809FE7C9
:103EC400284BA364B5F90430002092E7264BA36481
:103ED400F8E7264BA364F5E7254BA364F2E7254BEB
:103EE400A364EFE7244BA364ECE7244BA364E9E762
:103EF400218E91427FF47DAF83E7B5F90430B4F9A4
:103F04003810994223D0002073E7062B22D8DFE82B
:103F140003F01613100D0A070400194BA364D1E72C
:103F2400184BA364CEE7184BA364CBE7174BA364E9
:103F3400C8E7174BA364C5E7164BA364C2E7164B47
:103F4400A364BFE79FED158AB0EE489A8EE76B88AD
:103F5400638659E7002046E7CDB5E8B5004C000874
:103F6400000000422D2300080D220008BD24000893
:103F7400012D0008612A0008412800085526000880
:103F84000D330008D5310008F130000889390008E4
:103F940075370008BD3500085134000800000000E2
:103FA400174A136810B423F00103164C13602368F6
:103FB40033B9154B1B68C3F30B03B3F58A6F0FD0EA
:103FC400124A012313601368002BFCD1104B5DF8D7
:103FD400044B18601868081AB0FA80F0400970475A
:103FE4000C4A012313601368002BFCD10A4B5DF8C3
:103FF400044B18601868401AB0FA80F04009704702
:10400400002000E0002004E00010005C08300240C2
:1040140000300240084C0258004C025882B08DED2A
:10402400010A0199C1F3C753A3F17F02162A0CDCDC
:10403400002A10DB10481041014208D04FF48003DD
:1040440013410B4423EA00030BE0802A0DD09DEDBD
:10405400010A02B07047013201F0004301D143F07C
:104064007E5300EE103A02B07047DDED017A37EE70
:10407400A70A02B0704700BFFFFF7F002DE9F0439D
:104084002DED048BB14D8BB0F0EE408AB0EE608A1A
:1040940000F086F995F90040631CB0EE409A30D0E8
:1040A400B4EE488AF1EE10FA2BD6F4EE688AF1EEFB
:1040B40010FA67D6DFEDA69AF4EE698AF1EE10FAEB
:1040C40026D1B4EE698AF1EE10FA40F09180012312
:1040D400A04A009318EE900A002301920893FCF77B
:1040E400F3F9CDE9020118EE100AFCF7EDF900220C
:1040F4000023CDE90401CDE90623002C5FD0B7EEFF
:10410400009AB0EE490A0BB0BDEC048BBDE8F08315
:1041140000F046FC0446002800F09A80B5EE409A70
:10412400F1EE10FAEDD1B0EE680A00F039FC002887
:10413400E7D0B0EE480A00F033FC0028E1D00423B5
:10414400844A009318EE900A002308930192FCF726
:10415400BBF9CDE9020118EE100AFCF7B5F995F99F
:10416400003000260027022BCDE90401CDE90667C3
:1041740003D0684600F00AFC38BB00F0F5FC2223AB
:10418400036022E0B5EE408AF1EE10FAB9D10123C2
:10419400704A009318EE900A002301920893FCF7EA
:1041A40093F9CDE9020118EE100AFCF78DF96A4B78
:1041B4000022022CCDE90401CDE906239FD06846F4
:1041C40000F0E4FB002800F08480089B1BB100F0A1
:1041D400CBFC089B0360DDE90601FCF7CDF909EE91
:1041E400100AB0EE490A0BB0BDEC048BBDE8F083B5
:1041F400B0EE480A00F0D4FB002882D0B5EEC08AA5
:10420400F1EE10FA7FF57DAF0123524A009318EEC8
:10421400900A002308930192FCF756F9CDE90201B4
:1042240018EE100AFCF750F995F90030CDE90401B5
:10423400002B53D049490020022BCDE9060151D16E
:1042440000F092FC21230360089B002BC3D0BEE73F
:10425400B0EE680A00F0A4FB00283FF45FAFB0EEB4
:10426400480A00F09DFB00283FF458AF18EE900A6E
:10427400FCF72AF9804618EE100A8946FCF724F95F
:10428400B4EE499AF1EE10FA95F900606ED6F6EEA6
:10429400007A03222F4B08940092CDE90289CDE9DC
:1042A4000401019328EE278A16BB2D4BF5EEC08A34
:1042B4004FF06042F1EE10FACDE9062324D46846AB
:1042C40000F064FB0028BFD100F04EFC2223036001
:1042D400BAE700F049FC2123036076E700220023BB
:1042E400CDE90623684600F051FB0028ACD1A7E7CE
:1042F4001C4BF5EEC08A0022F1EE10FACDE906233C
:1043040013D4022EE0D0DAE7B0EE480A00F058FBEE
:10431400B4EE480AF1EE10FA14D0134B95F900608C
:104324004FF06042CDE90623EBE7B0EE480A00F017
:1043340047FBB4EE480AF1EE10FA03D0074B002213
:10434400CDE9062395F90060DBE700BF0C040020EB
:1043540000000000384C00080000F03F0000F0FFAF
:10436400FFFFEF470000F07FFFFFEFC701220B4B79
:1043740008940092CDE90289CDE904010193002E4D
:10438400ACD0C9EEA97A17EE900AFCF79DF8022E7C
:10439400CDE906013FF454AFA4E700BF384C000850
:1043A4002DE9F0472DED028B10EE903A82B033F0F8
:1043B40000468DED010A14D0DDF8048028F0004792
:1043C400B7F1FF4F07DD5A4802B0BDEC028BBDE8E0
:1043D400F04700F0EFBAB6F1FF4F09DDB7F17E5FA9
:1043E400F1D1B7EE000A02B0BDEC028BBDE8F08754
:1043F400B8F1000F10EE904A2ADB4FF00009B6F135
:10440400FF4F37D0B6F17E5F3DD0B4F1804F1AD064
:10441400019DB4F17C5F9A4600EE105A3BD1B8F18D
:10442400000F6CDA00F0B4FAB7F1FF4F00D0C7BB4D
:10443400A7F17E5757EA090368D0B9F1010FD2D129
:10444400B1EE400ACFE7DDED017A27EEA70ACAE70D
:10445400B6F1974F1CDAB6F17E5F08DBF215C2F1B4
:10446400960246FA02F101FA02F2B24253D04FF038
:104474000009C7E7B7F17E5FB3D032DD002C23DB40
:1044840000EE103AAFE7002C32DB9DED010AAAE7FB
:104494004FF00209B3E700F07BFAB7F1FF4F16D0F3
:1044A400AFB1B7F17E5F12D04FEAD873013B59EA3E
:1044B400030235D0B6F19A4F42DD1E4A974200F30B
:1044C4009481002CC0F297819FED1B0A8BE7002C8E
:1044D400BCBFF7EE007A87EE800AB8F1000F82DAEB
:1044E400A6E7002CF0DA07EE903AB1EE670A7AE715
:1044F4009DED017AF7EE007A87EE870A73E702B042
:10450400BDEC028BBDE8F04700F03CBA70EE407A97
:1045140087EEA70A67E701F00101C1F1020971E71B
:1045240007EE905A77EEE77A87EEA70A5BE700BFBB
:104534003C4C0008F7FF7F3F000000000000804B68
:10454400B7F5000F80F247815FED047A60EE277AB9
:104554006FF0170217EE907AEA48F915C7F31607B9
:104564007F398742114447F07E5240F33681E64852
:10457400874240F3B3819FEDE55A0131A2F5000271
:10458400F0EE453A0020F7EE006A04EE902A74EE4D
:10459400A67AB7EE007A87EE278A521042F00052CC
:1045A40002F58022024434EEE67ADFEDD98A9FEDEB
:1045B400D92A9FEDD90ADFEDD90A9FEDD91ADFED8B
:1045C400D91ADFEDD92A9FEDD93A27EE084A07EE2A
:1045D400902A24EE046AD64AA6EE282A14EE100A7B
:1045E400104005EE900AA2EE060AB1EE652A77EEB7
:1045F400E66AA2EE277AF0EE607AE0EE067A74EECE
:10460400E64AF0EE476AB0EE417AA7EE867AE2EE29
:10461400246AE7EE061A66EE886A75EE847A26EE58
:10462400066A67EEA67AF0EE084AE6EE217AB0EE64
:10463400646AA5EEA56A07EE101A36EE276ADFED66
:10464400BD1A16EE101A114006EE101A76EE644AE0
:10465400B8EEC77AE2EE254A77EEE47A67EE847A1A
:10466400E6EE267AF0EE676AE5EE866A16EE901AB2
:10467400114006EE901AE2EE066A05EE901A77EE05
:10468400E67A67EEA27AE5EE837A77EEA37AF0EE25
:10469400676AE5EEA16A76EE856A76EE876A16EEBB
:1046A400901A114006EE901A36EEC77A37EE457A24
:1046B400A5EEE17A77EEC77A24F47F6424F00F0440
:1046C40007EE10AA06EE104A67EE877A37EE466ABE
:1046D40007EE104AE6EE267A09F1FF3959EA030398
:1046E40026EE877ABFEE000A77EE876AB7EE006A95
:1046F40016EE901A14BFB0EE468AB0EE408A002936
:1047040021F0004340F38E80B3F1864F00F38380A1
:1047140076D0B3F17C5F00F39180002016EE903ADE
:1047240023F47F6323F00F0306EE903A9FED826A31
:10473400DFED825A9FED823ADFED823A9FED822AC5
:104744009FED824ADFED824A9FED825A36EEC77AA8
:10475400F0EE002A77EEC77A26EE867AA7EEA57ADF
:10476400F7EE005AF0EE477AA6EE837A27EE076A50
:10477400F0EE471AE6EEC31AF0EE636AE6EE026A5A
:1047840077EEE17AA6EE864AE7EE277AE4EE064A69
:10479400A4EE865AF0EE456AB0EE475AA6EEC65A23
:1047A400F0EE456A36EEE26A27EE055AC5EE066A71
:1047B40076EEE77A37EEC77A35EEC70A10EE103A8E
:1047C40003EBC053B3F5000FC0F2988000EE103A2B
:1047D40020EE080A07E60022BEE69FED4C5A0020B0
:1047E400F0EE453AF7EE006ACFE65B4A974244DDC5
:1047F400002C7FF769AE9FED590A20EE000AF2E51E
:104804009FED576A76EEC76A37EE866AB4EEE66ABB
:10481400F1EE10FA12DDDFED517A28EE270A20EED0
:10482400270AE0E54F4A934261DC7FF472AF76EEEB
:10483400C76AF4EEE76AF1EE10FA58DADB154FF4C2
:1048440000027E3B42FA03F30B44C3F3C752464CC7
:104854007F3A1441C3F3160023EA040306EE903AA8
:10486400C2F1170240F4000037EE667A10410029C5
:10487400B8BF404277EE876A50E7F7EE007A30EE31
:10488400670ADFED266ADFED397A9FED395A9FED2D
:10489400396AF1EE405AB5EE007AE5EE876AB6EE73
:1048A400007AA6EEC07A60EE006A27EE267A67EEFA
:1048B400C77AE0EE057AF0EE676AE0EE066A16EE75
:1048C400902A22F47F6222F00F0207EE102AA5EE4E
:1048D400867A06EE902A77EEC77AEDE69FED265AA1
:1048E400DFED263A4FF40010F7EE086A4DE6DFEDEF
:1048F400247A28EE270A20EE270A74E500F0C0F88F
:1049040066E700BF71C41C00D6B35D000000000060
:1049140042F1533E55326C3E05A38B3EABAAAA3EF0
:10492400B76DDB3E9A99193F4F38763FA0C39D3649
:1049340000F0FFFF0038763F8CBEBF351872313F60
:104944000072313F0EEADDB54CBB313355B38A38C2
:10495400610B36BBABAA2A3E0700803FCAF24971FD
:104964003CAA383300001643FFFF7F003BAAB83F40
:1049740070A5EC3600AAB83F00C0153FDCCFD13596
:104984006042A20DB1EEC00A704700BF002070471C
:1049940010EE103A23F0004300EE103A704700BFC7
:1049A40010EE103A23F00040B0F1FF4FACBF0020EE
:1049B400012070479FED010A704700BF0000C07FCF
:1049C40010EE102A22F00041CB0D7F3B162B27DC82
:1049D40061B310B4002B83B010EE100A4FEAD27109
:1049E40025DB254A1A41104241D05208104207D013
:1049F4004FF4001420EA020244FA03F342EA0300EB
:104A04001E4B03EB810191ED007A07EE900A77EEDD
:104A1400277ACDED017A9DED010A30EE470A26E0B2
:104A2400B1F1FF4F02D330EE000A70477047C2F372
:104A340016035B4211485B0A120D03F4800312054E
:104A44001A4300EB8100D0ED006A07EE902A36EE9F
:104A5400A77A8DED017ADDED017A77EEE67A17EE2D
:104A6400903A23F0004343EAC17300EE103A03B0D6
:104A74005DF8044B704700BFFFFF7F00404C000807
:104A840008B510EE103A33F000422DED028B11D030
:104A9400B2F1FF4F11D2B2F5000F13D3D20D02447D
:104AA400FE2A1CDC002A2ADD23F0FF4343EAC2531A
:104AB40000EE103ABDEC028B08BDBDEC028B30EE6B
:104AC400000A08BD1D4BDFED1E7A984220EE270A2E
:104AD40010DB10EE103AC3F3C752193ADFE79FED2B
:104AE400198AF0EE400AB0EE480A00F031F820EEE0
:104AF400080ADFE7DFED140A20EE200ADAE712F1F4
:104B0400160F0EDA4CF250339842E8DC9FED0E8A11
:104B1400F0EE400AB0EE480A00F01AF820EE080A57
:104B2400C8E7193223F0FF4343EAC253DFED077AA3
:104B340000EE103A20EE270ABCE700BFB03CFFFFAE
:104B44000000004CCAF249716042A20D000000331B
:104B540010EE103A10EE902A23F0004302F00042C7
:104B6400134300EE103A7047014B1868704700BFBA
:104B74001004002070B50D4E0D4CA41BA41000258C
:104B8400A54209D10B4E0C4C00F020F8A41BA41034
:104B94000025A54205D170BD56F82530984701354A
:104BA400EEE756F8253098470135F2E7504C0008F7
:104BB400504C0008504C0008544C00080244034672
:104BC400934200D1704703F8011BF9E7F8B500BF21
:104BD400F8BC08BC9E467047F8B500BFF8BC08BCDA
:044BE4009E46704732
:104BE8000000000000000000010203040607080995
:104BF80000000000010203040000304100002041D1
:104C0800000010410000E0400000804100006041C9
:104C18000000504126B417400000803F6F12033F48
:104C28000000003E0000804226B497410000004189
:104C3800706F7766000000000000004B000000CB9A
:084C480004BAFF7F0100000027
:044C5000E90100086E
:044C5400C50100088E
:104C580001000000100000000024F4000000000023
:104C68000090C00101A850010138110303B8F000F9
:104C78000348B1020460410204F0010406C0A00028
:104C8800065061020768F10107F8B103097891013C
:104C9800090852030A20E2020AB0A2040AC060000E
:104CA8000A5021020B68B1010BF871030D7851010C
:104CB8000D0812030E20A2020EB06204108001013A
:104CC8001010C2021128520211B812041338F2014E
:104CD80013C8B20314E04203147003050FB8300080
:104CE8000F48F1011060810110F041031270210199
:104CF8001200E2021318720213A832041578D100C8
:104D0800150892021620220216B0E2031830C201DA
:104D180018C0820319D812031968D30419789100AE
:104D2800190852021A20E2011AB0A2031C308201AB
:104D38001CC042031DD8D2021D6893041F383201DB
:104D48001FC8F20220E082022070430422F02202EF
:104D58002280E303239873032328340515A8100041
:104D68001538D1011650610116E0210318600101C0
:104D780018F0C10219085202199812041B68B100F0
:104D88001BF871021C1002021CA0C2031E20A20103
:104D98001EB062031FC8F2021F58B3041F687100D7
:104DA8001FF831022010C20120A0820322206201D4
:104DB80022B0220323C8B202235873042528120103
:104DC80025B8D20226D062022660230428E0020217
:104DD8002870C30329885303291814052460410047
:104DE80024F0010225089201259852032718320160
:104DF80027A8F20228C08202285043042A20E20091
:104E08002AB0A2022BC832022B58F3032DD8D201A4
:104E18002D6893032E8023032E10E4042E20A20075
:104E28002EB062022FC8F2012F58B30331D8920175
:104E3800316853033280E3023210A40434E04201A3
:104E480034700303358893023518540437983302B5
:104E58003728F4033840840338D044051C900000F8
:104E68001C20C1011D3851011DC811031F48F10044
:104E78001FD8B10220F04102208002042250A10074
:104E880022E0610223F8F1012388B2032508920188
:104E98002598520326B0E2022640A304265061005A
:104EA80026E0210227F8B101278872032908520158
:104EB800299812032AB0A2022A4063042C10020186
:104EC8002CA0C2022DB852022D4813042FC8F2019B
:104ED8002F58B30330704303300004052B483100CA
:104EE8002BD8F1012CF081012C8042032E002201E5
:104EF8002E90E2022FA872022F3833043108D20014
:104F08003198920232B022023240E30334C0C20127
:104F1800345083033568130335F8D30435089200F9
:104F28003598520236B0E2013640A30338C08201F8
:104F3800385043033968D30239F893043BC8320127
:104F48003B58F3023C7083023C0044043E80230239
:104F58003E10E4033F2874033FB83405313811008C
:104F680031C8D10132E061013270220334F001010D
:104F78003480C202359852023528130437F8B1003C
:104F88003788720238A002023830C3033AB0A2014F
:104F98003A4063033B58F3023BE8B3043BF8710023
:104FA8003B8832023CA0C2013C3083033EB0620120
:104FB8003E4023033F58B3023FE8730441B812014F
:104FC8004148D3024260630242F023044470030262
:104FD8004400C4034518540345A8140540F0410093
:104FE80040800202419892014128530343A83201AC
:104FF8004338F3024450830244E0430446B0E200DD
:105008004640A3024758330247E8F3034968D301EF
:1050180049F893034A1024034AA0E4044AB0A200C2
:105028004A4063024B58F3014BE8B3034D689301C0
:105038004DF853034E10E4024EA0A40450704301EF
:10504800500004035118940251A854045328340200
:1050580053B8F40354D0840354604505010000009C
:105068001404002000000000000000000000000000
:105078000000000000000000000000000000000028
:105088000000000000000000000000000000000018
:105098000000000000000000000000000000000008
:1050A80000000000000000000000000000000000F8
:1050B80000000000000000000000000000000000E8
:0450C80000000000E4
:04000005080021B915
:00000001FF
