:020000040800F2
:1000000000000220050500086108000863080008D8
:10001000650800086708000869080008000000007B
:100020000000000000000000000000006B08000855
:100030006D080008000000006F0800087108000843
:100040005505000855050008550500085505000828
:100050005505000855050008550500085505000818
:100060005505000855050008550500085505000808
:1000700055050008550500087908000855050008D1
:1000800055050008550500085505000855050008E8
:1000900055050008550500085505000855050008D8
:1000A00055050008550500085505000855050008C8
:1000B00055050008550500085505000855050008B8
:1000C00055050008550500085505000855050008A8
:1000D0005505000855050008550500085505000898
:1000E0005505000855050008550500085505000888
:1000F0005505000855050008550500085505000878
:100100005505000855050008550500085505000867
:100110005505000855050008550500085505000857
:100120005505000855050008550500085505000847
:1001300055050008000000000000000055050008FB
:100140005505000855050008550500085505000827
:100150005505000855050008550500085505000817
:100160005505000855050008550500085505000807
:100170005505000855050008550500080000000059
:10018000000000005505000800000000000000000D
:10019000550500080000000000000000550500089B
:1001A00000000000000000000000000055050008ED
:1001B00055050008550500085505000855050008B7
:0401C00055050008D9
:1001C40010B5054C237833B9044B13B10448AFF38D
:1001D40000800123237010BD0C00002000000000EB
:1001E400E429000808B5034B1BB103490348AFF3E6
:1001F400008008BD0000000010000020E429000871
:1002040053B94AB9002908BF00281CBF4FF0FF3179
:100214004FF0FF3000F072B9ADF1080C6DE904CE77
:1002240000F006F8DDF804E0DDE9022304B07047CD
:100234002DE9F047089E04468846002B4BD18A429C
:10024400154667D9B2FA82F24AB1C2F1200701FA1F
:1002540002F320FA07F7954047EA030894404FEA6F
:10026400154E230CB8FBFEF71FFA85FC0EFB17880E
:1002740043EA084307FB0CF1994209D9EB1807F14B
:10028400FF3080F01B81994240F21881023F2B44D9
:100294005B1AA4B2B3FBFEF00EFB103344EA034432
:1002A40000FB0CFCA44509D92C1900F1FF3380F0A4
:1002B4000781A44540F2048102382C4440EA0740F7
:1002C400A4EB0C0400271EB1D4400023C6E900436C
:1002D4003946BDE8F0878B4209D9002E00F0EB8047
:1002E4000027C6E9000138463946BDE8F087B3FA6D
:1002F40083F7002F47D18B4202D3824200F2FA8067
:10030400841A61EB030301209846002EE0D0C6E96D
:100314000048DDE702B9FFDEB2FA82F2002A40F0BB
:100324008F80491B4FEA154E1FFA85F80127B1FB50
:10033400FEFC230C0EFB1C1143EA014308FB0CF1E9
:10034400994207D9EB180CF1FF3002D2994200F21E
:10035400CD808446591AA3B2B1FBFEF00EFB1014F3
:1003640043EA044408FB00F8A04507D92C1900F11E
:10037400FF3302D2A04500F2B6801846A4EB08046D
:1003840040EA0C409FE7C7F1200CBB4022FA0CFE68
:100394004EEA030E01FA07F420FA0CF521FA0CF3E5
:1003A4004FEA1E482543B3FBF8F92C0C08FB19331C
:1003B4001FFA8EFA44EA034309FB0AF49C4202FA48
:1003C40007F200FA07F10BD91EEB030309F1FF3022
:1003D40080F087809C4240F28480A9F10209734432
:1003E4001B1BADB2B3FBF8F008FB103345EA034422
:1003F40000FB0AFAA24508D91EEB040400F1FF33FE
:100404006BD2A24569D90238744440EA0940A0FB82
:100414000289A4EB0A044C45C2464B4654D351D03E
:10042400002E69D0B1EB0A0564EB030404FA0CFC5A
:10043400FD40FC404CEA0505C6E90054002747E7A7
:10044400C2F1200320FA03F7954001FA02F021FAE1
:1004540003F34FEA154E3843010CB3FBFEF71FFAC2
:1004640085F80EFB173341EA034107FB08F38B427F
:1004740004FA02F407D9691807F1FF3C2FD28B4222
:100484002DD9023F2944CB1A81B2B3FBFEF00EFBF7
:10049400103341EA034100FB08F38B4207D9691882
:1004A40000F1FF3C17D28B4215D902382944C91AEE
:1004B40040EA07473BE73746304609E70746E7E6A1
:1004C4001846FBE64145ABD2B8EB020A69EB0E02D3
:1004D40001381346A4E76046E9E7184695E76746FE
:1004E400D1E781467CE702382C4447E7ACF1020CA3
:1004F4002B442FE7384608E73746E9E6704700BF44
:10050400DFF834D0002103E00C4B5B584350043136
:100514000B480C4B42189A42F6D30B4A02E00023D4
:1005240042F8043B094B9A42F9D300F0ABF902F0CC
:100534002BFA00F067F9704700000220B82B00087E
:10054400000000200C0000200C000020DC00002033
:10055400FEE7000008B50548054B036000F096FA75
:1005640000B908BD00F05CF9FBE700BF28000020DB
:10057400003002400268094B9A4200D0704782B0B2
:1005840000230193064B1A6B42F480521A631B6BCF
:1005940003F480530193019B02B070470030024082
:1005A4000038024000B583B000210191094B1A6B59
:1005B40042F400121A631B6B03F400130193019BB2
:1005C4000A460E2000F0EEF90E2000F031FA03B0D6
:1005D4005DF804FB0038024084B000220192104B05
:1005E400196B41F080011963196B01F080010191CD
:1005F40001990292196B41F004011963196B01F01E
:1006040004010291029903921A6B42F002021A63E6
:100614001B6B03F002030393039B04B0704700BFFA
:100624000038024008B50C480C4B03604FF440738B
:100634004360102383600123C360002303614FF4EC
:100644007A5242618361C361036200F04DFE00B9D6
:1006540008BD00F0E5F8FBE79000002000380040FA
:10066400F0B589B00023039304930593069307938D
:1006740002682E4B9A4201D009B0F0BD0446002511
:10068400009503F500331A6C42F480421A641A6C24
:1006940002F480420092009A01951A6B42F004021F
:1006A4001A631A6B02F004020192019A02951A6B02
:1006B40042F002021A631B6B03F002030293029BD3
:1006C40008230393022704970526079603A91848CD
:1006D40000F096FC4FF44053039304970595069558
:1006E400079603A9134800F08BFC1348134B0360CF
:1006F40045608560C5604FF4806303614FF4006317
:1007040043614FF4005383614FF48073C3614FF42A
:1007140000330362456200F03DFA18B9064BE36307
:100724009C63A9E700F07CF8F8E700BF00380040BC
:1007340000080240000402403000002058600240DB
:1007440030B5ADB0342200211FA802F041F90024D5
:100754001A941B941C941D941E945C22214603A895
:1007640002F036F9254B5A6822F03F0242F00402A7
:100774005A605A6842F480025A6001941A6C42F03A
:1007840080521A641B6C03F080530193019B029402
:100794001B4A136823F4404343F4804313601368F3
:1007A40003F440430293029B03231F934FF48033CB
:1007B4002093012522951023239325944FF480033D
:1007C40026931FA801F06EFE0F231A931B941C940A
:1007D4001D941E9421461AA800F040FF0395C023DF
:1007E40005930223069305220492089207930D951C
:1007F400119403A801F03CF82DB030BD003802403C
:100804000070004008B500F083F8FFF799FFFFF788
:10081400E3FEFFF7C7FEFFF705FFFFF79BFEFEE7CA
:100824007047704782B0002100910B4B5A6C42F420
:1008340080425A645A6C02F480420092009A0191F8
:100844001A6C42F080521A641B6C03F080530193BB
:10085400019B02B0704700BF003802407047FEE7BA
:10086400FEE7FEE7FEE770477047704708B500F003
:1008740069F808BD08B5024800F0D4FA08BD00BF05
:10088400300000200C4B1A6842F001021A6000216B
:1008940099601A6822F0847222F480321A60074A3E
:1008A4005A601A6822F480221A60D960044B4FF00F
:1008B40000629A60704700BF003802401030002484
:1008C40000ED00E010B504460E4B18784FF47A732F
:1008D400B3FBF0F30C4A1068B0FBF3F000F0C0F87F
:1008E40068B90F2C01D901200AE0002221464FF0FB
:1008F400FF3000F057F8054B1C60002000E0012099
:1009040010BD00BF040000200000002008000020EB
:1009140008B50B4B1A6842F400721A601A6842F464
:1009240080621A601A6842F480721A60032000F030
:100934001BF80020FFF7C6FFFFF774FF002008BD77
:10094400003C0240034A1168034B1B780B441360BC
:10095400704700BFD800002004000020014B186835
:10096400704700BFD800002010B50446C31E042BF6
:100974000FD80A4AD36823F4E0631B041B0C240237
:1009840004F4E064234343F0BF6343F40033D360CF
:1009940010BD92210248FFF744FFEAE700ED00E0B2
:1009A4000C2A000870B505460C4616460F2A25D8B1
:1009B4000F2C28D81B4BDB68C3F30223C3F10702B7
:1009C400042A28BF0422191D062921D9033B4FF00C
:1009D400FF3101FA02F224EA02049C4001FA03F313
:1009E40026EA03063443002D14DB2401E4B205F1A6
:1009F400604505F5614585F8004370BDAA210A48A4
:100A0400FFF70FFFD4E7AB210748FFF70AFFD1E751
:100A14000023DCE705F00F052401E4B2034B5C5529
:100A2400EBE700BF00ED00E00C2A000814ED00E045
:100A340010B5041E0ADB002C07DB04F01F02640956
:100A440001239340044A42F8243010BDBE210348D8
:100A5400FFF7E7FEEFE700BF00E100E00C2A000823
:100A64000138B0F1807F0AD2064B5860064AF02163
:100A740082F823100020986007221A607047012032
:100A8400704700BF10E000E000ED00E0B0B110B529
:100A9400044602680A4B9A4203D068210948FFF7CA
:100AA400C0FE63792BB102236371012363710020BB
:100AB40010BD23712046FFF75DFDF4E70120704768
:100AC40000300240482A00080268D3B2103B0B49A8
:100AD400A1FB03131B090A49C95CC165032B06D892
:100AE40022F47F7222F003028265806D704722F443
:100AF4007F7222F0030204328265F6E7ABAAAAAA47
:100B0400B82A0008836A826992B9012B0AD01BB102
:100B1400022B01D000207047C36A13F0807F2CD1D0
:100B240000207047C36AB3F1C07F28D0002070470B
:100B3400B2F5005F05D0022B29D9032B15D0002074
:100B44007047032B03D8DFE803F01C041C0A0020C1
:100B54007047C36A13F0807F15D100207047C36AC1
:100B6400B3F1C07F11D000207047C36A13F0807FB7
:100B740001D00120704700207047012070470120F8
:100B84007047012070470120704701207047012001
:100B94007047000070B50446FFF7E0FE002C00F03B
:100BA4003881054623689C4A934231D018329342D7
:100BB4002ED0183293422BD01832934228D01832B8
:100BC400934225D01832934222D0183293421FD038
:100BD400183293421CD002F55672934218D0183240
:100BE400934215D01832934212D0183293420FD048
:100BF400183293420CD01832934209D018329342DF
:100C040006D01832934203D0B8218448FFF709FE76
:100C14006368A3B1B3F1007F11D0B3F1806F0ED03C
:100C2400B3F1C06F0BD0B3F1006F08D0B3F1206FF4
:100C340005D0B3F1406F02D0B3F1606F6DD1A368FA
:100C44001BB1402B01D0802B6CD1E368B3F5007F3E
:100C540001D0002B6BD12369B3F5806F01D0002B39
:100C64006AD163692BB1B3F5006F02D0B3F5805F2D
:100C740067D1A3692BB1B3F5005F02D0B3F5804F00
:100C840064D1E36923B1B3F5807F01D0202B62D115
:100C9400236A43B1B3F5803F05D0B3F5003F02D0DA
:100CA400B3F5403F5CD1636A0BB1042B5DD1636A39
:100CB400C3B1A36A032B5DD8E36A43B1B3F5000F54
:100CC40005D0B3F1807F02D0B3F1C07F57D1236B3D
:100CD40043B1B3F5001F05D0B3F5800F02D0B3F5CF
:100CE400C00F51D1002384F83430022384F8353006
:100CF4002268136823F00103136023681A6812F052
:100D0400010F46D0FFF72AFE401B0528F5D9202302
:100D14006365032084F8350070BDB9213F48FFF7AF
:100D240080FD8CE7BA213D48FFF77BFD8DE7BB21B1
:100D34003A48FFF776FD8EE7BC213848FFF771FD8E
:100D44008FE7BD213548FFF76CFD92E7BE2133489C
:100D5400FFF767FD95E7BF213048FFF762FD97E78E
:100D6400C0212E48FFF75DFD9DE7C1212B48FFF709
:100D740058FD9CE7C6212948FFF753FD9CE7C7218E
:100D84002648FFF74EFDA2E7C8212448FFF749FD96
:100D9400A8E71A68224810406168A2680A43E1681B
:100DA4000A4321690A4361690A43A1690A43E16963
:100DB4000A43216A0A430243616A04291ED01A6065
:100DC4002668756925F00705636A1D43042B07D15E
:100DD400A36A1D43E36A1BB12046FFF793FE90B953
:100DE40075612046FFF770FEE26D3F2393408360F8
:100DF40000206065012384F835308DE7E16A206BBB
:100E040001430A43DBE740236365012084F835008E
:100E140082E7012080E700BF10600240802A0008BA
:100E24003F8010F0F0B583B0044600230193724B69
:100E34001D68724BA3FB0535AD0A876D3E68C26D14
:100E440008239340334210D003681A6812F0040F49
:100E54000BD01A6822F004021A60C26D0823934072
:100E6400BB60436D43F001034365E26D012393408E
:100E7400334209D02268526912F0800F04D0BB605B
:100E8400636D43F002036365E26D042393403342D0
:100E940009D02268126812F0020F04D0BB60636D9F
:100EA40043F004036365E26D10239340334224D07E
:100EB4002268126812F0080F1FD0BB6023681A68FA
:100EC40012F4802F0DD01B6813F4002F04D1236C6F
:100ED4009BB12046984710E0A36C73B12046984715
:100EE4000BE01A6812F4807F03D11A6822F008021A
:100EF4001A60236C0BB120469847E26D202393407F
:100F0400334255D02268126812F0100F50D0BB60E3
:100F140094F83530DBB2052B0ED023681A6812F42E
:100F2400802F33D01B6813F4002F2AD1636C002B5D
:100F34003ED0204698473BE02268136823F016030E
:100F440013602268536923F080035361236CA3B1B7
:100F54002268136823F008031360E26D3F23934073
:100F6400BB60002384F83430012384F83530236DCA
:100F7400002B3FD0204698473CE0A36C002BE7D1E0
:100F8400EBE7E36BA3B12046984711E01A6812F42B
:100F9400807F09D11A6822F010021A60002384F8B5
:100FA4003430012384F83530E36B0BB12046984785
:100FB400636DFBB1636D13F0010F17D0052384F843
:100FC40035302268136823F001031360019B013359
:100FD4000193AB4204D823681B6813F0010FF5D1C9
:100FE400002384F83430012384F83530E36C0BB1EA
:100FF4002046984703B0F0BD00000020B5814E1B89
:101004002DE9F04782B080460E46B14B98421FD07E
:1010140003F5806398421BD003F58063984217D090
:1010240003F58063984213D003F5806398420FD090
:1010340003F5806398420BD003F58063984207D090
:1010440003F58063984203D0B321A248FFF7E9FB7C
:1010540033689AB212B11B0C1B041BB1B4219D4816
:10106400FFF7DFFB7368012B1ED9112B1CD0022B59
:101074001AD0122B18D0984A934215D002F5801238
:10108400934211D002F5801293420DD0A2F5F812CA
:10109400934209D002F58012934205D002F58012E2
:1010A400934201D0032B04D1B368022B06D8002449
:1010B40045E0B5218748FFF7B4FBF5E7B62185483D
:1010C400FFF7AFFBF3E7DA218248FFF7AAFB96E0CC
:1010D400062300E000238B40034302327F4941F89A
:1010E40022307F4B1A68FB4303EA0201706810F454
:1010F400803F01D047EA0201794A1160526803EA4D
:101104000201706810F4003F01D047EA0201744AFA
:101114005160926803EA0201706810F4801F01D0E4
:1011240047EA02016E4A9160D2681340716811F473
:10113400001F01D047EA0203694AD36001340F2C2F
:1011440000F2C3800125A54037682F40BD42F5D188
:101154007368022B01D0122B31D13369FBB1092BF7
:101164001DD0012B1BD0022B19D0032B17D0042B1D
:1011740015D0052B13D0062B11D0072B0FD0082B1D
:101184000DD00A2B0BD00B2B09D00C2B07D00D2B19
:1011940005D00F2B03D0C7214E48FFF742FBE208CE
:1011A400083258F8220004F0070399000F238B40FB
:1011B40020EA030033698B40034348F82230D8F80F
:1011C40000204FEA440A4FF0030909FA0AF96FEACA
:1011D400090909EA0202736803F0030303FA0AF334
:1011E4001343C8F8003073685A1E012A03D9112B1F
:1011F40001D0122B18D1F368032B3FF664AFD8F853
:10120400082009EA0202F36803FA0AF31343C8F850
:101214000830D8F8042022EA05027368C3F30015E5
:10122400A5401543C8F80450D8F80C3009EA03095E
:10123400B36803FA0AF343EA0903C8F80C30736885
:1012440013F0805F3FF47AAF00230193254B5A6C6F
:1012540042F480425A645B6C03F480430193019B23
:10126400A208911C1D4B53F8210004F003039900BC
:101274000F238B4020EA0300154B98453FF42AAF17
:1012840003F58063984516D003F58063984514D020
:1012940003F58063984512D003F58063984510D018
:1012A40003F5806398450ED003F5806398453FF4B9
:1012B4000FAF07230FE701230DE702230BE70323F7
:1012C40009E7042307E7052305E702B0BDE8F08733
:1012D40000000240C02A000800001110003801403C
:1012E400003C014000380240002800F0068138B577
:1012F40004460368824A93420CD0A2F57842934292
:1013040008D002F58062934204D04FF489717D487D
:10131400FFF787FA636843B1B3F5807F05D0B3F56F
:10132400007F02D0B3F5407F51D1A3683BB1102BAD
:1013340005D0202B03D0302B01D0B02B4DD1E36846
:10134400012B03D9032B01D0052B4CD12369B3F511
:10135400007F01D0002B4CD16369A3F5FA516A4A8E
:10136400914201D9022B4AD1A3690BB1082B4CD16C
:10137400E369012B03D9032B01D0022B4BD194F841
:101384004130002B4DD0022284F841202168CB69E2
:1013940023F47B6323F00F03CB6123681A62636930
:1013A400934200F0A280E368002B42D11025A36889
:1013B400202B00D86D002368544A93423BD002F599
:1013C4008062934237D0022000F046FE36E040F2BD
:1013D40013114C48FFF725FAA7E74FF48A714948DF
:1013E400FFF71FFAABE740F215114648FFF719FA69
:1013F400ACE74FF48B714348FFF713FAACE740F2C4
:1014040017114048FFF70DFAAEE74FF48C713D48D1
:10141400FFF707FAACE740F219113A48FFF701FA6F
:10142400ADE784F840303A4B63632046FFF718F980
:10143400A9E72025BBE7012000F00EFE2369B3F5E0
:10144400007F3AD0B0FBF5F000EB80004300626906
:10145400B3FBF2F305332F4AA2FB0323DB0803F0AB
:1014640001029B1A5B081202991EFD293FD82169CB
:101474000A43216813430B622168CB6923F47B631D
:1014840023F00F036268A0680243E0680243A06986
:101494000243134343F40063CB61A368302B01D0B0
:1014A400B02B04D12268D36943F48053D361002064
:1014B4006064012384F8413038BDE36853B1AD0062
:1014C400B0FBF5F000EB800043006269B3FBF2F37C
:1014D4000533C0E7ED00B0FBF5F000EB80004300FE
:1014E4006269B3FBF2F30533B5E70022BCE7636C32
:1014F40043F0100363640120DEE70120704700BF5E
:1015040000300140FC2A0008C0CE02000038004030
:101514008F150008CDCCCCCC704708B5426A03685F
:101524001288DA60436A02334362438D013B9BB203
:101534004385438D9BB203B108BD0268536823F011
:10154400A0035360012380F84130FFF7E5FFF3E780
:10155400704708B50368DA68C36A1A80C36A02333D
:10156400C362438E013B9BB24386438E9BB203B15D
:1015740008BD0268536823F060035360012380F8B8
:101584004130FFF7E5FFF3E7704710B584B0044638
:1015940002689368039390F84130DBB2042B06D0C1
:1015A40094F84130DBB2032B2CD004B010BD039B64
:1015B40013F0010F03D0536813F0400F1FD1039BA6
:1015C40013F0400FECD023685A6812F0200FE7D0D4
:1015D4005A6822F060025A60002301932368DA6893
:1015E40001929B680193019B012384F84130636C51
:1015F40043F0020363642046FFF7C6FFD0E7FFF71A
:10160400A8FFDCE7039B13F0020F04D023685B6898
:1016140013F0800F1DD1039B13F0080FC5D023686E
:101624005A6812F0200FC0D05A6822F0A0025A6003
:101634000023029323689B680293029B012384F88E
:101644004130636C43F0040363642046FFF79CFF5E
:10165400ABE72046FFF761FFDDE70000002800F05C
:10166400F98070B504460D460368013B0E2B11D872
:101674000F2D15D8794B1B6803F00F03AB4215D21D
:10168400EBB2764A1370136803F00F03AB420DD02C
:10169400012070BD4FF410717148FFF7C2F8E7E7FD
:1016A40040F241216E48FFF7BCF8E3E7236813F0EA
:1016B400020F29D013F0040F04D06A4A936843F44C
:1016C400E0539360236813F0080F04D0654A9368CD
:1016D40043F460439360A3687BB1802B0DD0902BBF
:1016E4000BD0A02B09D0B02B07D0C02B05D0D02B0A
:1016F40003D0E02B01D0F02B33D15A4A936823F066
:10170400F003A1680B439360236813F0010F42D0E8
:101714006368032B2BD86368012B2ED09A1E012AF1
:1017240032D9504A126812F0020F00F095804D49E8
:101734008A6822F0030213438B60FFF70FF9064611
:10174400484B9B6803F00C036268B3EB820F22D012
:10175400FFF704F9801B41F288339842F0D9032043
:1017640097E74FF419713E48FFF75BF8C5E740F27D
:101774006B213B48FFF755F8CDE73A4A126812F45B
:10178400003FD4D1012084E7364A126812F0007F6A
:10179400CDD101207DE7314B1B6803F00F03AB4231
:1017A40009D9EAB22D4B1A701B6803F00F03AB4240
:1017B40001D001206DE7236813F0040F14D0E3680F
:1017C4005BB1B3F5805F08D0B3F5A05F05D0B3F586
:1017D400C05F02D0B3F5E05F30D1224A936823F4AE
:1017E400E053E1680B439360236813F0080F15D0AE
:1017F40023695BB1B3F5805F08D0B3F5A05F05D072
:10180400B3F5C05F02D0B3F5E05F1DD1154A93680C
:1018140023F46043216943EAC103936000F086FD29
:10182400104B9B68C3F303130F4AD35CD8400F4B90
:1018340018600020FFF746F800202AE740F2A921AB
:101844000748FEF7EEFFC8E74FF42C710448FEF793
:10185400E8FFDBE70120704701201AE7003C024063
:10186400342B000800380240FC2900080000002046
:10187400F0B583B004460368013B40F6FE72934220
:101884001CD8236813F0010F22D0A36B43B1B3F12A
:10189400007F05D0B3F1806F02D0B3F1C06F12D1D5
:1018A400994AD2F88C3023F0C063A16B0B43C2F881
:1018B4008C30A36B002B48D000270AE066219348A4
:1018C400FEF7AFFFDDE76C219048FEF7AAFFE7E7DC
:1018D4000027236813F0020F16D0E36B43B1B3F172
:1018E400006F05D0B3F1805F02D0B3F1C05F2ED199
:1018F400854AD2F88C3023F0C053E16B0B43C2F815
:101904008C30E36B03B90127236813F0040F2AD04A
:10191400236B43B1B3F5801F05D0B3F5001F02D08C
:10192400B3F5401F18D1784AD2F88C3023F4401311
:10193400216B0B43C2F88C30236BB3F5801F10D09E
:10194400002B00F0D88000250EE00127C1E77C21A0
:101954006E48FEF766FFCBE78C216C48FEF761FF0B
:10196400E1E70127ECE70025236813F0080F1BD0FB
:10197400636B4BB1B3F5800F06D0B3F5000F03D002
:10198400B3F5400F40F0B9805F4AD2F88C3023F4AD
:101994004003616B0B43C2F88C30636BB3F5800F6B
:1019A40000F0B08003B90125236813F0200F00F084
:1019B400DF80236CB3F5807F7DD0B3F5007F7AD0D0
:1019C400534A934277D002F58032934273D002F5A2
:1019D400803293426FD002F5803293426BD002F58D
:1019E4008032934267D002F58032934263D002F58D
:1019F400803293425FD002F5803293425BD002F58D
:101A04008032934257D002F58032934253D002F58C
:101A1400803293424FD002F5803293424BD002F58C
:101A24008032934247D002F58032934243D002F58C
:101A3400803293423FD002F5803293423BD002F58C
:101A44008032934237D002F58032934233D002F58C
:101A5400803293422FD002F5803293422BD002F58C
:101A64008032934227D002F58032934223D002F58C
:101A7400803293421FD002F5803293421BD002F58C
:101A84008032934217D002F58032934213D002F58C
:101A9400803293420FD002F5803293420BD002F58C
:101AA4008032934207D002F58032934203D0B721AB
:101AB4001648FEF7B6FE00230193134B1A6C42F04E
:101AC40080521A641B6C03F080530193019B114AEA
:101AD400136843F480731360FEF740FF06460D4B12
:101AE4001B6813F4807F17D1FEF738FF801B022890
:101AF400F5D90320B4E0012536E7A1210348FEF718
:101B040090FE41E701274DE7003802406C2B0008A6
:101B14000003020000700040794B1B6F13F4407304
:101B240013D0226C02F440729A420ED0744B1A6F96
:101B340022F44072734901200860002008601A678B
:101B44001B6F13F0010F40F08D80236C03F440727F
:101B5400B2F5407F00F09880694A936823F4F81343
:101B6400936067490B6F226CC2F30B0213430B673C
:101B7400236813F0100F03D094F85820624B1A60B6
:101B8400236813F0800F11D0E36C33B1B3F5800FE9
:101B940003D0B3F5000F40F08280594AD2F8943054
:101BA40023F44003E16C0B43C2F89430236813F030
:101BB400400F0DD0A36C13B1B3F1806F74D1504AB0
:101BC400D2F8943023F08063A16C0B43C2F89430B4
:101BD400236813F4807F11D0636D13B1B3F1006FE8
:101BE40068D1474AD2F8943023F00063616D0B4307
:101BF400C2F89430636DB3F1006F61D0236813F4BD
:101C0400007F0DD0636C13B1B3F1805F5AD13C4AAD
:101C1400D2F8943023F08053616C0B43C2F89430B3
:101C2400236813F4806F11D0236D13B1B3F1005FF7
:101C34004ED1334AD2F8943023F00053216D0B4334
:101C4400C2F89430236DB3F1005F47D0002F45D123
:101C54002368B3F5006F41D0002D40F05881002077
:101C640003B0F0BDFEF77AFE0646254B1B6F13F05A
:101C7400020F7FF46AAFFEF771FE801B41F28833D6
:101C84009842F2D90320EBE71D498A6822F4F8123E
:101C940023F0704323F4407313438B6061E7F52111
:101CA4001A48FEF7BEFD78E74FF480711748FEF737
:101CB400B8FD84E740F20B111448FEF7B2FD90E73B
:101CC40001259BE74FF48E711048FEF7AAFD9EE7AD
:101CD40040F227110D48FEF7A4FDAAE70C4B0022A1
:101CE4001A60FEF73BFE0646054B1B6813F0006FB7
:101CF40010D0FEF733FE801B0228F5D90320AFE78E
:101D040000380240400E4742E01147426C2B000865
:101D1400680047426368023B3D2B00F2A080A36841
:101D2400323BB3F5BF7F00F2A080236813F0010FAC
:101D340001D0A26B22B113F0020F1AD0E36BC3B926
:101D44006369023B052B00F29680BA4AD2F88400FC
:101D5400D2F884106368A66843EA861300F440301E
:101D6400034301F070610B43616943EA0173C2F8F4
:101D74008430236813F0040F03D0226BB2F5801F64
:101D840006D013F0080F28D0636BB3F5800F24D16D
:101D94002369023B0D2B74D8A36A013B1F2B76D811
:101DA400A44AD2F88400D2F884106368A66843EA8F
:101DB400861300F440300343206943EA006301F0D2
:101DC400E0410B43C2F88430D2F88C3023F01F0377
:101DD400A16A01390B43C2F88C30236813F4806F75
:101DE40003D0236DB3F1005F57D0236813F4006F61
:101DF40022D0E368022B05D0042B03D0062B01D09C
:101E0400082B72D16369023B052B74D82369023B0A
:101E14000D2B76D86368A26843EA8213E2685208FD
:101E2400013A43EA0243226943EA0263626943EAEC
:101E34000273804AC2F884307F4B01221A60FEF795
:101E44008DFD06467B4B1B6813F0006F7FF404AFD7
:101E5400FEF784FD801B0228F4D9032000E740F23A
:101E640047117648FEF7DDFC59E74FF4A471734837
:101E7400FEF7D7FC59E740F24F117048FEF7D1FC4A
:101E840063E740F25F116D48FEF7CBFC84E740F254
:101E940061116A48FEF7C5FC82E7E368022B05D0AE
:101EA400042B03D0062B01D0082B18D16148D0F89D
:101EB4008430C3F301435A1CD0F884606368A1687A
:101EC40043EA8113E1684908013943EA014343EADB
:101ED400426306F0E0421343C0F8843085E74FF4D0
:101EE400BA715648FEF79DFCE0E74FF4C1715348C0
:101EF400FEF797FC86E740F283115048FEF791FC09
:101F040084E74FF4C2714D48FEF78BFC82E74C4BDB
:101F140000221A60FEF722FD0546464B1B6813F0AB
:101F2400005F06D0FEF71AFD401B0228F5D90320F6
:101F340096E6A3693F2B4AD8E369323BB3F5BF7FEA
:101F44004BD8236813F0040F01D0226B22B113F095
:101F5400080F22D0636B03BB636A023B0D2B42D88C
:101F6400E36A013B1F2B44D8324AD2F88810A36994
:101F7400E06943EA801301F440310B43616A43EAA8
:101F84000163C2F88830D2F88C3023F4F853E16A44
:101F9400013943EA0123C2F88C30236813F4807FAB
:101FA40003D0636DB3F1006F29D0254B01221A6071
:101FB400FEF7D4FC04461F4B1B6813F0005F47D1A7
:101FC400FEF7CCFC001B0228F5D9032048E64FF4A9
:101FD400D7711A48FEF725FCAEE740F2AF11174857
:101FE400FEF71FFCADE74FF4DB711448FEF719FC54
:101FF400B6E74FF4DC711148FEF713FCB4E7236A2B
:10200400022B05D0042B03D0062B01D0082B19D1A9
:102014000848D0F88810A369E26943EA8213226A67
:102024005208013A43EA024301F070621343C0F8D4
:102034008830BAE700380240680047426C2B000839
:10204400700047424FF4E5710248FEF7EAFBDFE710
:10205400002005E66C2B00080138072800F258819F
:10206400DFE810F09E00FB005601080056015601FF
:1020740056010800AA4BD3F88C3003F47003B3F56F
:10208400401F00F0478108D8B3F5801F12D0B3F584
:10209400001F65D083B300207047B3F5000F5FD0F5
:1020A400B3F5400F03D19E4B5B689E487047B3F570
:1020B400800FF0D19A4B5B6813F4800F47D1984B93
:1020C400D3F8843003F03F039648B0FBF3F0944B0D
:1020D400D3F88420C2F30362D3F88410C1F38811C7
:1020E40000FB01F0B0FBF2F0D3F88C3003F01F03D7
:1020F4000133B0FBF3F07047894B5B6813F4800F36
:102104001CD1874BD3F8883003F03F038548B0FBDC
:10211400F3F0834BD3F88820C2F30362D3F888101A
:10212400C1F3881100FB01F0B0FBF2F0D3F88C305E
:10213400C3F304230133B0FBF3F07047784BD3F8B7
:10214400883003F03F037748B0FBF3F0E1E7744BCA
:10215400D3F8843003F03F037248B0FBF3F0B6E7E2
:102164006F4B5B6813F4800F12D16D4B5B6803F007
:102174003F036C48B0FBF3F0694A5368C3F302733E
:102184005268C2F3881200FB02F0B0FBF3F0704710
:10219400634B5B6803F03F036248B0FBF3F0EBE78B
:1021A4005F4BD3F88C3003F0C063B3F1007F29D0C8
:1021B4000AD9B3F1806F30D0B3F1C06F40F0AC8076
:1021C400574B5B6857487047002B40F0A580544B31
:1021D4005B6813F4800F17D0514BD3F8843003F0AD
:1021E4003F035048B0FBF3F04D4AD2F88430C3F3B8
:1021F400881300FB03F0D2F88430C3F30273B0FBFE
:10220400F3F0704748487047454BD3F8843003F0E7
:102214003F034448B0FBF3F0E6E7414B5B6813F43B
:10222400800F12D03E4B5B6803F03F033D48B0FB88
:10223400F3F03B4A5368C3F3881300FB03F053687D
:10224400C3F30273B0FBF3F07047354B5B6803F0E4
:102254003F033448B0FBF3F0EBE7314BD3F88C3059
:1022640003F0C053B3F1006F27D009D9B3F1805FF5
:102274002ED0B3F1C05F51D1294B5B682948704718
:10228400002B4BD1264B5B6813F4800F17D0244BE3
:10229400D3F8843003F03F032248B0FBF3F0204A24
:1022A400D2F88430C3F3881300FB03F0D2F88430EF
:1022B400C3F30273B0FBF3F070471B487047184B2D
:1022C400D3F8843003F03F031648B0FBF3F0E6E79D
:1022D400134B5B6813F4800F12D0114B5B6803F04F
:1022E4003F031048B0FBF3F00D4A5368C3F388135F
:1022F40000FB03F05368C3F30273B0FBF3F07047C1
:10230400074B5B6803F03F030648B0FBF3F0EBE7D1
:102314000020704704487047002070470020704731
:10232400003802400024F4000080BB002DE9F04B8B
:102334005A4B9B6803F00C03082B03D00C2B58D08A
:10234400574831E0554B5A6802F03F025B6813F47A
:10235400800F2BD0514B5B68C3F388131E460027B4
:102364005C010025E41A65EB0705A90141EA9461C3
:10237400A001001B61EB0501CB0043EA5073C400CC
:10238400A01943EB07018B0243EA905384022046D1
:1023940019460023FDF734FF404B5B68C3F3014348
:1023A40001335B00B0FBF3F0BDE8F08B3B4B5B68A3
:1023B400C3F388131E4600275C010025E41A65EB6D
:1023C4000705A90141EA9461A001001B61EB050125
:1023D400CB0043EA5073C400A01943EB07018B02FE
:1023E40043EA90538402204619460023FDF708FF70
:1023F400D2E72A4B5A6802F03F025B6813F4800F5D
:1024040028D0264B5B68C3F388131E4600275C0163
:102414000025E41A65EB0705A90141EA9461A001CE
:10242400001B61EB0501CB0043EA5073C400A01903
:1024340043EB07018B0243EA90538402204619467A
:102444000023FDF7DDFE154B5B68C3F30273B0FB9D
:10245400F3F0A9E7114B5B68C3F388131E4600270A
:102464005C010025E41A65EB0705A90141EA9461C2
:10247400A001001B61EB0501CB0043EA5073C400CB
:10248400A01943EB07018B0243EA905384022046D0
:1024940019460023FDF7B4FED5E700BF003802401B
:1024A4000024F40070B582B0044603680F2B3FD8B3
:1024B400236813F0010F55D063682BB1B3F5803F47
:1024C40002D0B3F5A02F39D18D4B9B6803F00C03D8
:1024D400042B3ED08A4B9B6803F00C03082B33D0AB
:1024E400874B9B6803F00C030C2B6CD06368B3F52B
:1024F400803F6ED0B3F5A02F71D0814B1A6822F4BF
:1025040080321A601A6822F480221A606368002BF1
:102514006FD0FEF723FA0546794B1B6813F4003F8E
:1025240020D1FEF71BFA401B6428F5D903201FE2D3
:102534004FF450617348FEF774F9B9E740F605515A
:102544007048FEF76EF9BFE76D4B5B6813F4800FBC
:10255400C6D06B4B1B6813F4003F03D06368002B99
:1025640000F00382236813F0020F7AD0E368012B92
:102574004ED823691F2B51D8614B9B6813F00C0F65
:1025840057D05F4B9B6803F00C03082B4CD05C4B7B
:102594009B6803F00C030C2B55D0E368002B00F070
:1025A4008480594B01221A60FEF7D8F90546544B32
:1025B4001B6813F0020F6FD1FEF7D0F9401B0228FD
:1025C400F5D90320D4E14E4B5B6813F4800F8DD012
:1025D400BFE74B4A136843F48033136096E7484BD4
:1025E4001A6842F480221A601A6842F480321A602F
:1025F4008CE7FEF7B3F90546414B1B6813F4003F23
:10260400B0D0FEF7ABF9401B6428F5D90320AFE145
:1026140040F63D513B48FEF704F9AAE740F63E5127
:102624003848FEF7FEF8A7E7354B5B6813F4800FD4
:10263400ADD1334B1B6813F0020F0AD0E368012BB2
:1026440007D0012094E12E4B5B6813F4800FA4D1D2
:10265400EFE72B4A136823F0F803216943EAC10327
:102664001360236813F0080F52D06369012B2ED82E
:10267400636993B3254B01221A60FEF76FF905468F
:102684001F4B5B6F13F0020F42D1FEF767F9401B3B
:102694000228F5D903206BE1194A136823F0F803E3
:1026A400216943EAC1031360DBE7174B00221A6078
:1026B400FEF754F90546124B1B6813F0020FD0D0F5
:1026C400FEF74CF9401B0228F5D9032050E140F6EF
:1026D40084510C48FEF7A5F8CAE70C4B00221A6097
:1026E400FEF73CF90546064B5B6F13F0020F0FD063
:1026F400FEF734F9401B0228F5D9032038E100BF66
:10270400003802406C2B000800004742800E47420C
:10271400236813F0040F7CD0A368012B01D9052B87
:1027240038D1954B1B6C13F0805F39D10023019392
:10273400914B1A6C42F080521A641B6C03F0805364
:102744000193019B01258D4B1B6813F4807F29D0D5
:10275400A368012B3AD0052B3ED0874B1A6F22F089
:1027640001021A671A6F22F004021A67A368002B89
:102774003CD0FEF7F3F806467F4B1B6F13F0020FB5
:1027840045D1FEF7EBF8801B41F288339842F3D928
:102794000320EDE04FF45B617948FEF742F8C0E7AF
:1027A4000025D0E7754A136843F480731360FEF77D
:1027B400D5F80646714B1B6813F4807FC8D1FEF729
:1027C400CDF8801B0228F5D90320D1E06A4A136FA3
:1027D40043F001031367C9E7674B1A6F42F0040221
:1027E4001A671A6F42F001021A67BFE7FEF7B6F8DC
:1027F4000646614B1B6F13F0020F08D0FEF7AEF8CC
:10280400801B41F288339842F3D90320B0E0002DB5
:1028140040D1A369022B43D8A369002B00F0A78001
:10282400554A926802F00C02082A00F0A380022B99
:1028340040F08780E36913B1B3F5800F36D1236A82
:102844003F2B39D8636A323BB3F5BF7F3AD8A36ACA
:10285400022B05D0042B03D0062B01D0082B37D133
:10286400E36A023B0D2B39D8236B023B052B3BD883
:10287400444B00221A60FEF771F805463E4B1B6874
:1028840013F0007F36D0FEF769F8401B0228F5D913
:1028940003206DE0384A136C23F080531364B8E7C7
:1028A40040F6F3513648FDF7BCFFB5E740F6FC515E
:1028B4003348FDF7B6FFC2E740F6FD513048FDF757
:1028C400B0FFBFE740F6FE512D48FDF7AAFFBEE773
:1028D40040F6FF512A48FDF7A4FFC1E74FF46061B9
:1028E4002748FDF79EFFBFE740F601612448FDF746
:1028F40098FFBDE7E369226A1343626A43EA8213DD
:10290400A26A5208013A43EA0243E26A43EA0263D2
:10291400226B43EA0273184A53601A4B01221A606D
:10292400FEF71CF80446144B1B6813F0007F06D115
:10293400FEF714F8001B0228F5D9032018E0002044
:1029440016E0104B00221A60FEF708F804460A4B02
:102954001B6813F0007F06D0FEF700F8001B022866
:10296400F5D9032004E0002002E0012000E000206B
:1029740002B070BD0120FBE7003802400070004047
:102984006C2B00086000474270B50D4E0D4CA41B23
:10299400A4100025A54209D10B4E0C4C00F020F8E0
:1029A400A41BA4100025A54205D170BD56F82530FE
:1029B40098470135EEE756F8253098470135F2E798
:1029C400B02B0008B02B0008B02B0008B42B000873
:1029D40002440346934200D1704703F8011BF9E710
:1029E400F8B500BFF8BC08BC9E467047F8B500BFF8
:0829F400F8BC08BC9E467047C8
:1029FC0000000000000000000102030406070809A3
:102A0C002E2E2F447269766572732F53544D3332C8
:102A1C00463478785F48414C5F4472697665722F12
:102A2C005372632F73746D3332663478785F6861D8
:102A3C006C5F636F727465782E6300002E2E2F44CA
:102A4C007269766572732F53544D333246347878ED
:102A5C005F48414C5F4472697665722F5372632FE5
:102A6C0073746D3332663478785F68616C5F63724F
:102A7C00632E63002E2E2F447269766572732F536A
:102A8C00544D3332463478785F48414C5F44726918
:102A9C007665722F5372632F73746D33326634788C
:102AAC00785F68616C5F646D612E630000061016C0
:102ABC00000610162E2E2F447269766572732F53F2
:102ACC00544D3332463478785F48414C5F447269D8
:102ADC007665722F5372632F73746D33326634784C
:102AEC00785F68616C5F6770696F2E63000000002F
:102AFC002E2E2F447269766572732F53544D3332D8
:102B0C00463478785F48414C5F4472697665722F21
:102B1C005372632F73746D3332663478785F6861E7
:102B2C006C5F6932732E63002E2E2F4472697665AA
:102B3C0072732F53544D3332463478785F48414C7E
:102B4C005F4472697665722F5372632F73746D33A1
:102B5C0032663478785F68616C5F7263632E6300F1
:102B6C002E2E2F447269766572732F53544D333267
:102B7C00463478785F48414C5F4472697665722FB1
:102B8C005372632F73746D3332663478785F686177
:0C2B9C006C5F7263635F65782E6300005D
:082BA8008CD6FF7F0100000044
:042BB000E90100082F
:042BB400C50100084F
:0C2BB8000024F4000100000010000000E8
:0400000508000505E5
:00000001FF
